{
  "transactions": [
    {
      "hash": "0x088572621f61d2e8add1e4dc1febe941fb0e9be369906c909d12c506e42ab057",
      "transactionType": "CALL",
      "contractName": null,
      "contractAddress": "0xbdb3472d1d3ef34662e44c3142efc0366877ca7f",
      "function": "setPoolConfig(bytes32,(bool,address,bool,uint16,uint16,uint8,uint256,uint256,uint16,uint16,uint40,uint40))",
      "arguments": [
        "0xf202916bd1893e5e7e498b4f89adc7c62e40a062e4df1a4b50090019bc227d02",
        "(true, 0x6744af6f637887495E261Ec0f14c9bF9F10cA1B9, false, 600, 2000, 1, 5000000000000000000, 500000000000000000, 150, 35, 30, 10)"
      ],
      "transaction": {
        "from": "0x4b992f2fbf714c0fcbb23bac5130ace48cad00cd",
        "to": "0xbdb3472d1d3ef34662e44c3142efc0366877ca7f",
        "gas": "0x107d9",
        "value": "0x0",
        "input": "0xd890c3e3f202916bd1893e5e7e498b4f89adc7c62e40a062e4df1a4b50090019bc227d0200000000000000000000000000000000000000000000000000000000000000010000000000000000000000006744af6f637887495e261ec0f14c9bf9f10ca1b90000000000000000000000000000000000000000000000000000000000000000000000000000000000000000000000000000000000000000000000000000025800000000000000000000000000000000000000000000000000000000000007d000000000000000000000000000000000000000000000000000000000000000010000000000000000000000000000000000000000000000004563918244f4000000000000000000000000000000000000000000000000000006f05b59d3b2000000000000000000000000000000000000000000000000000000000000000000960000000000000000000000000000000000000000000000000000000000000023000000000000000000000000000000000000000000000000000000000000001e000000000000000000000000000000000000000000000000000000000000000a",
        "nonce": "0x5b3",
        "chainId": "0x515"
      },
      "additionalContracts": [],
      "isFixedGasLimit": false
    }
  ],
  "receipts": [
    {
      "status": "0x1",
      "cumulativeGasUsed": "0x61962",
      "logs": [
        {
          "address": "0xbdb3472d1d3ef34662e44c3142efc0366877ca7f",
          "topics": [
            "0xde6a5a705833b1b2c038799f2ff3cbb7a1a28331ce8274496e50701733a2de7b",
            "0xf202916bd1893e5e7e498b4f89adc7c62e40a062e4df1a4b50090019bc227d02"
          ],
          "data": "0x00000000000000000000000000000000000000000000000000000000000000010000000000000000000000006744af6f637887495e261ec0f14c9bf9f10ca1b90000000000000000000000000000000000000000000000000000000000000000000000000000000000000000000000000000000000000000000000000000025800000000000000000000000000000000000000000000000000000000000007d000000000000000000000000000000000000000000000000000000000000000010000000000000000000000000000000000000000000000004563918244f4000000000000000000000000000000000000000000000000000006f05b59d3b2000000000000000000000000000000000000000000000000000000000000000000960000000000000000000000000000000000000000000000000000000000000023000000000000000000000000000000000000000000000000000000000000001e000000000000000000000000000000000000000000000000000000000000000a",
          "blockHash": "0x0000000000000000000000000000000000000000000000000000000000000000",
          "blockNumber": "0x2ca0b73",
          "blockTimestamp": "0x69b7b8bf",
          "transactionHash": "0x088572621f61d2e8add1e4dc1febe941fb0e9be369906c909d12c506e42ab057",
          "transactionIndex": "0x5",
          "logIndex": "0x3",
          "removed": false
        }
      ],
      "logsBloom": "0x00000000000000000000000000000000000000000000000000000000000000000000000000000000001000000000000000000000000000000000000000000000000000000000000000000000000008000000000001000000010000000000000000000000000000000000000000000000000000000000000000000000000000000000000000000000000000000000000000000000000000002000000000000000000000000002000000000000000000000080000000000000000000000000000000000000000000000000000000000000000000000000000000000000000000000000000000000000000000000000000000001000000000080000000000000000",
      "type": "0x2",
      "transactionHash": "0x088572621f61d2e8add1e4dc1febe941fb0e9be369906c909d12c506e42ab057",
      "transactionIndex": "0x5",
      "blockHash": "0x0000000000000000000000000000000000000000000000000000000000000000",
      "blockNumber": "0x2ca0b73",
      "gasUsed": "0xbf06",
      "effectiveGasPrice": "0x7a121",
      "blobGasUsed": "0x10fe0",
      "from": "0x4b992f2fbf714c0fcbb23bac5130ace48cad00cd",
      "to": "0xbdb3472d1d3ef34662e44c3142efc0366877ca7f",
      "contractAddress": null,
      "daFootprintGasScalar": "0x190",
      "l1BaseFeeScalar": "0x7d0",
      "l1BlobBaseFee": "0x159e095f",
      "l1BlobBaseFeeScalar": "0xdbba0",
      "l1Fee": "0xa8f0fbda9",
      "l1GasPrice": "0xa",
      "l1GasUsed": "0xaee"
    }
  ],
  "libraries": [],
  "pending": [],
  "returns": {},
  "timestamp": 1773648062703,
  "chain": 1301,
  "commit": "f911d63"
}