{
  "transactions": [
    {
      "hash": "0xbcc19f4fdc778e237d26b440ea6af8c4c00ed3239aeab2b6fa014f5f7dad8510",
      "transactionType": "CALL",
      "contractName": null,
      "contractAddress": "0xbdb3472d1d3ef34662e44c3142efc0366877ca7f",
      "function": "setPoolConfig(bytes32,(bool,address,bool,uint16,uint16,uint8,uint256,uint256,uint16,uint16,uint40,uint40))",
      "arguments": [
        "0xf202916bd1893e5e7e498b4f89adc7c62e40a062e4df1a4b50090019bc227d02",
        "(true, 0x6744af6f637887495E261Ec0f14c9bF9F10cA1B9, false, 600, 2000, 1, 5000000000000000000, 500000000000000000, 150, 35, 30, 10)"
      ],
      "transaction": {
        "from": "0x4b992f2fbf714c0fcbb23bac5130ace48cad00cd",
        "to": "0xbdb3472d1d3ef34662e44c3142efc0366877ca7f",
        "gas": "0x2b554",
        "value": "0x0",
        "input": "0xd890c3e3f202916bd1893e5e7e498b4f89adc7c62e40a062e4df1a4b50090019bc227d0200000000000000000000000000000000000000000000000000000000000000010000000000000000000000006744af6f637887495e261ec0f14c9bf9f10ca1b90000000000000000000000000000000000000000000000000000000000000000000000000000000000000000000000000000000000000000000000000000025800000000000000000000000000000000000000000000000000000000000007d000000000000000000000000000000000000000000000000000000000000000010000000000000000000000000000000000000000000000004563918244f4000000000000000000000000000000000000000000000000000006f05b59d3b2000000000000000000000000000000000000000000000000000000000000000000960000000000000000000000000000000000000000000000000000000000000023000000000000000000000000000000000000000000000000000000000000001e000000000000000000000000000000000000000000000000000000000000000a",
        "nonce": "0x4b5",
        "chainId": "0x515"
      },
      "additionalContracts": [],
      "isFixedGasLimit": false
    },
    {
      "hash": "0xc1e768ae6054c3e66bcf2c61ec358d8fe1218308c33475928189bf0a0e326a8d",
      "transactionType": "CALL",
      "contractName": null,
      "contractAddress": "0x00b036b58a818b1bc34d502d3fe730db729e62ac",
      "function": "initialize((address,address,uint24,int24,address),uint160)",
      "arguments": [
        "(0x5793351da4b69071fe012213fb1e9f7465C519F9, 0x6744af6f637887495E261Ec0f14c9bF9F10cA1B9, 3000, 60, 0xd6DF2976E510312F782C91146c0387d6085880c0)",
        "79228162514264337593543950336"
      ],
      "transaction": {
        "from": "0x4b992f2fbf714c0fcbb23bac5130ace48cad00cd",
        "to": "0x00b036b58a818b1bc34d502d3fe730db729e62ac",
        "gas": "0x11721",
        "value": "0x0",
        "input": "0x6276cbbe0000000000000000000000005793351da4b69071fe012213fb1e9f7465c519f90000000000000000000000006744af6f637887495e261ec0f14c9bf9f10ca1b90000000000000000000000000000000000000000000000000000000000000bb8000000000000000000000000000000000000000000000000000000000000003c000000000000000000000000d6df2976e510312f782c91146c0387d6085880c00000000000000000000000000000000000000001000000000000000000000000",
        "nonce": "0x4b6",
        "chainId": "0x515"
      },
      "additionalContracts": [],
      "isFixedGasLimit": false
    }
  ],
  "receipts": [
    {
      "status": "0x1",
      "cumulativeGasUsed": "0x5e008",
      "logs": [
        {
          "address": "0xbdb3472d1d3ef34662e44c3142efc0366877ca7f",
          "topics": [
            "0xde6a5a705833b1b2c038799f2ff3cbb7a1a28331ce8274496e50701733a2de7b",
            "0xf202916bd1893e5e7e498b4f89adc7c62e40a062e4df1a4b50090019bc227d02"
          ],
          "data": "0x00000000000000000000000000000000000000000000000000000000000000010000000000000000000000006744af6f637887495e261ec0f14c9bf9f10ca1b90000000000000000000000000000000000000000000000000000000000000000000000000000000000000000000000000000000000000000000000000000025800000000000000000000000000000000000000000000000000000000000007d000000000000000000000000000000000000000000000000000000000000000010000000000000000000000000000000000000000000000004563918244f4000000000000000000000000000000000000000000000000000006f05b59d3b2000000000000000000000000000000000000000000000000000000000000000000960000000000000000000000000000000000000000000000000000000000000023000000000000000000000000000000000000000000000000000000000000001e000000000000000000000000000000000000000000000000000000000000000a",
          "blockHash": "0x6833d513402ce47cc2d0103f56ed57d3ed13f816410ee71e3ca9741eb8cd6d3c",
          "blockNumber": "0x2c91866",
          "blockTimestamp": "0x69b6c5b2",
          "transactionHash": "0xbcc19f4fdc778e237d26b440ea6af8c4c00ed3239aeab2b6fa014f5f7dad8510",
          "transactionIndex": "0x4",
          "logIndex": "0x2",
          "removed": false
        }
      ],
      "logsBloom": "0x00000000000000000000000000000000000000000000000000000000000000000000000000000000001000000000000000000000000000000000000000000000000000000000000000000000000008000000000001000000010000000000000000000000000000000000000000000000000000000000000000000000000000000000000000000000000000000000000000000000000000002000000000000000000000000002000000000000000000000080000000000000000000000000000000000000000000000000000000000000000000000000000000000000000000000000000000000000000000000000000000001000000000080000000000000000",
      "type": "0x2",
      "transactionHash": "0xbcc19f4fdc778e237d26b440ea6af8c4c00ed3239aeab2b6fa014f5f7dad8510",
      "transactionIndex": "0x4",
      "blockHash": "0x6833d513402ce47cc2d0103f56ed57d3ed13f816410ee71e3ca9741eb8cd6d3c",
      "blockNumber": "0x2c91866",
      "gasUsed": "0x1f5f6",
      "effectiveGasPrice": "0x7a121",
      "blobGasUsed": "0x10fe0",
      "from": "0x4b992f2fbf714c0fcbb23bac5130ace48cad00cd",
      "to": "0xbdb3472d1d3ef34662e44c3142efc0366877ca7f",
      "contractAddress": null,
      "daFootprintGasScalar": "0x190",
      "l1BaseFeeScalar": "0x7d0",
      "l1BlobBaseFee": "0x1",
      "l1BlobBaseFeeScalar": "0xdbba0",
      "l1Fee": "0xcf",
      "l1GasPrice": "0x9",
      "l1GasUsed": "0xaee"
    },
    {
      "status": "0x1",
      "cumulativeGasUsed": "0x34402",
      "logs": [
        {
          "address": "0x00b036b58a818b1bc34d502d3fe730db729e62ac",
          "topics": [
            "0xdd466e674ea557f56295e2d0218a125ea4b4f0f6f3307b95f85e6110838d6438",
            "0xf202916bd1893e5e7e498b4f89adc7c62e40a062e4df1a4b50090019bc227d02",
            "0x0000000000000000000000005793351da4b69071fe012213fb1e9f7465c519f9",
            "0x0000000000000000000000006744af6f637887495e261ec0f14c9bf9f10ca1b9"
          ],
          "data": "0x0000000000000000000000000000000000000000000000000000000000000bb8000000000000000000000000000000000000000000000000000000000000003c000000000000000000000000d6df2976e510312f782c91146c0387d6085880c000000000000000000000000000000000000000010000000000000000000000000000000000000000000000000000000000000000000000000000000000000000",
          "blockHash": "0x53d3236dd4e7141ea62ee8bdd2874e3bd91b96addccc2056a6140c870f6545be",
          "blockNumber": "0x2c91869",
          "blockTimestamp": "0x69b6c5b5",
          "transactionHash": "0xc1e768ae6054c3e66bcf2c61ec358d8fe1218308c33475928189bf0a0e326a8d",
          "transactionIndex": "0x3",
          "logIndex": "0x1",
          "removed": false
        }
      ],
      "logsBloom": "0x00010000000000000000000000000000000000000000000000000000000000000000000000000000001000000000000000000000000000000000000000000000000000000000000000000000000000000000000000000000000000000000000000000000000000000000000000000000000000000000800000020000000000000000000000000008000000000008000000000001000000000000000000200800000000000000000000000000000000000080000800000010000000000000000000000000000000000000000000000000000000000000000000000000000000000000000000000000000000000000000000001000000002000000000000000010",
      "type": "0x2",
      "transactionHash": "0xc1e768ae6054c3e66bcf2c61ec358d8fe1218308c33475928189bf0a0e326a8d",
      "transactionIndex": "0x3",
      "blockHash": "0x53d3236dd4e7141ea62ee8bdd2874e3bd91b96addccc2056a6140c870f6545be",
      "blockNumber": "0x2c91869",
      "gasUsed": "0xca16",
      "effectiveGasPrice": "0x7a121",
      "blobGasUsed": "0xdf70",
      "from": "0x4b992f2fbf714c0fcbb23bac5130ace48cad00cd",
      "to": "0x00b036b58a818b1bc34d502d3fe730db729e62ac",
      "contractAddress": null,
      "daFootprintGasScalar": "0x190",
      "l1BaseFeeScalar": "0x7d0",
      "l1BlobBaseFee": "0x1",
      "l1BlobBaseFeeScalar": "0xdbba0",
      "l1Fee": "0xaa",
      "l1GasPrice": "0x9",
      "l1GasUsed": "0x8f1"
    }
  ],
  "libraries": [],
  "pending": [],
  "returns": {},
  "timestamp": 1773585845788,
  "chain": 1301,
  "commit": "f911d63"
}