{
  "transactions": [
    {
      "hash": null,
      "transactionType": "CREATE",
      "contractName": "MockPoolManagerHarness",
      "contractAddress": "0x1f601976fb1905ebc488a29cb47e57645b86e072",
      "function": null,
      "arguments": null,
      "transaction": {
        "from": "0x4b992f2fbf714c0fcbb23bac5130ace48cad00cd",
        "value": "0x0",
        "input": "0x608060405234601c57600e6020565b61151061002b823961151090f35b6026565b60405190565b5f80fdfe60806040526004361015610013575b610655565b61001d5f3561008c565b80631e2eaeaf1461008757806335fd631a1461008257806341e891871461007d57806383cbd58b14610078578063d52fd69314610073578063dbd035ff1461006e5763de31d6420361000e57610621565b6105be565b610503565b6104c9565b610367565b610231565b61010a565b60e01c90565b60405190565b5f80fd5b5f80fd5b5f80fd5b90565b6100b0816100a4565b036100b757565b5f80fd5b905035906100c8826100a7565b565b906020828203126100e3576100e0915f016100bb565b90565b61009c565b6100f1906100a4565b9052565b9190610108905f602085019401906100e8565b565b3461013a576101366101256101203660046100ca565b6106a8565b61012d610092565b918291826100f5565b0390f35b610098565b90565b61014b8161013f565b0361015257565b5f80fd5b9050359061016382610142565b565b919060408382031261018d578061018161018a925f86016100bb565b93602001610156565b90565b61009c565b5190565b60209181520190565b60200190565b6101ae906100a4565b9052565b906101bf816020936101a5565b0190565b60200190565b906101e66101e06101d984610192565b8093610196565b9261019f565b905f5b8181106101f65750505090565b90919261020f61020960019286516101b2565b946101c3565b91019190916101e9565b61022e9160208201915f8184039101526101c9565b90565b346102625761025e61024d610247366004610165565b9061087a565b610255610092565b91829182610219565b0390f35b610098565b610270816100a4565b0361027757565b5f80fd5b9050359061028882610267565b565b60018060a01b031690565b61029e8161028a565b036102a557565b5f80fd5b905035906102b682610295565b565b60020b90565b6102c7816102b8565b036102ce57565b5f80fd5b905035906102df826102be565b565b62ffffff1690565b6102f2816102e1565b036102f957565b5f80fd5b9050359061030a826102e9565b565b919060a08382031261035d57610324815f850161027b565b9261033282602083016102a9565b9261035a61034384604085016102d2565b9361035181606086016102fd565b936080016102fd565b90565b61009c565b5f0190565b346103995761038361037a36600461030c565b93929092610ad5565b61038b610092565b8061039581610362565b0390f35b610098565b6103a79061028a565b90565b6103b38161039e565b036103ba57565b5f80fd5b905035906103cb826103aa565b565b5f80fd5b908160a09103126103df5790565b6103cd565b908160609103126103f25790565b6103cd565b610140818303126104395761040e825f83016103be565b9261043661041f84602085016103be565b9361042d81604086016103d1565b9360e0016103e4565b90565b61009c565b151590565b61044c9061043e565b9052565b5190565b60209181520190565b90825f9392825e0152565b601f801991011690565b61049161049a60209361049f9361048881610450565b93848093610454565b9586910161045d565b610468565b0190565b916104c6926104b960408201935f830190610443565b6020818403910152610472565b90565b346104fe576104e56104dc3660046103f7565b9291909161107d565b906104fa6104f1610092565b928392836104a3565b0390f35b610098565b346105385761051f6105163660046103f7565b929190916112d8565b9061053461052b610092565b928392836104a3565b0390f35b610098565b5f80fd5b5f80fd5b5f80fd5b909182601f830112156105835781359167ffffffffffffffff831161057e57602001926020830284011161057957565b610545565b610541565b61053d565b906020828203126105b9575f82013567ffffffffffffffff81116105b4576105b09201610549565b9091565b6100a0565b61009c565b346105ef576105eb6105da6105d4366004610588565b90611453565b6105e2610092565b91829182610219565b0390f35b610098565b919060408382031261061c5780610610610619925f86016100bb565b936020016100bb565b90565b61009c565b346106505761063a6106343660046105f4565b906114ee565b610642610092565b8061064c81610362565b0390f35b610098565b5f80fd5b5f90565b610666906100a4565b90565b906106739061065d565b5f5260205260405f2090565b5f1c90565b90565b6106936106989161067f565b610684565b90565b6106a59054610687565b90565b6106be6106c3916106b7610659565b505f610669565b61069b565b90565b606090565b634e487b7160e01b5f52604160045260245ffd5b906106e990610468565b810190811067ffffffffffffffff82111761070357604052565b6106cb565b9061071b610714610092565b92836106df565b565b67ffffffffffffffff81116107355760208091020190565b6106cb565b9061074c6107478361071d565b610708565b918252565b369037565b9061077b6107638361073a565b92602080610771869361071d565b9201910390610751565b565b90565b90565b61079761079261079c9261077d565b610780565b61013f565b90565b60016107ab910161013f565b90565b6107c26107bd6107c79261013f565b610780565b61013f565b90565b6107d66107db9161067f565b6107ae565b90565b634e487b7160e01b5f52601160045260245ffd5b6108016108079193929361013f565b9261013f565b820180921161081257565b6107de565b5f1b90565b61083061082b6108359261013f565b610817565b6100a4565b90565b634e487b7160e01b5f52603260045260245ffd5b9061085682610192565b811015610867576020809102010190565b610838565b90610876906100a4565b9052565b6108826106c6565b5061088c82610756565b926108965f610783565b5b806108aa6108a48661013f565b9161013f565b1015610900576108fb906108f66108e46108df5f6108d96108d46108cd8a6107ca565b87906107f2565b61081c565b90610669565b61069b565b6108f1889184909261084c565b61086c565b61079f565b610897565b50915050565b90565b61091d61091861092292610906565b610780565b61013f565b90565b6109376109326006610909565b61081c565b90565b90565b61094961094e916100a4565b61093a565b9052565b60208161096461096c9383969561093d565b01809261093d565b0190565b60200190565b90565b61098d610988610992926102b8565b610780565b610976565b90565b6109a96109a46109ae92610976565b610780565b61013f565b90565b6109c56109c06109ca9261013f565b610780565b6102e1565b90565b6109e16109dc6109e69261028a565b610780565b61013f565b90565b6109fd6109f8610a02926102e1565b610780565b61013f565b90565b90565b60ff1690565b610a22610a1d610a2792610a05565b610780565b610a08565b90565b1b90565b610a4d90610a47610a41610a5294610a08565b9161013f565b90610a2a565b61013f565b90565b90565b610a6c610a67610a7192610a55565b610780565b610a08565b90565b90565b610a8b610a86610a9092610a74565b610780565b610a08565b90565b90610a9f5f1991610817565b9181191691161790565b610ab29061067f565b90565b90610aca610ac5610ad19261065d565b610aa9565b8254610a93565b9055565b93610ba9610b99610bb69495610b92610b82610baf96610b7b610b6b610b65610b5f610b5a610bbb9f610b0a610b559161065d565b610b3c610b15610925565b91610b2d610b21610092565b93849260208401610952565b602082018103825203826106df565b610b4e610b4882610450565b91610970565b209f610979565b610995565b6109b1565b936109cd565b926109e9565b610b7560a0610a0e565b90610a2e565b17926109e9565b610b8c60b8610a58565b90610a2e565b17926109e9565b610ba360d0610a77565b90610a2e565b1761081c565b915f610669565b610ab5565b565b5f90565b606090565b610bda610bd5610bdf9261028a565b610780565b61028a565b90565b610beb90610bc6565b90565b610bf790610be2565b90565b610c0390610bc6565b90565b610c0f90610bfa565b90565b67ffffffffffffffff8111610c3057610c2c602091610468565b0190565b6106cb565b90610c47610c4283610c12565b610708565b918252565b610c555f610c35565b90565b610c60610c4c565b90565b60e01b90565b63ffffffff60e01b1690565b610c7e81610c69565b03610c8557565b5f80fd5b90505190610c9682610c75565b565b610ca181610976565b03610ca857565b5f80fd5b90505190610cb982610c98565b565b90505190610cc8826102e9565b565b9091606082840312610cff57610cfc610ce5845f8501610c89565b93610cf38160208601610cac565b93604001610cbb565b90565b61009c565b610d0d9061039e565b9052565b610d1a8161039e565b03610d2157565b5f80fd5b90503590610d3282610d11565b565b50610d43906020810190610d25565b90565b610d4f90610bfa565b90565b610d5b90610d46565b9052565b50610d6e9060208101906102fd565b90565b610d7a906102e1565b9052565b50610d8d9060208101906102d2565b90565b610d99906102b8565b9052565b610da69061039e565b90565b610db281610d9d565b03610db957565b5f80fd5b90503590610dca82610da9565b565b50610ddb906020810190610dbd565b90565b610de790610c06565b9052565b906080610e64610e6c93610e0d610e045f830183610d34565b5f860190610d52565b610e27610e1d6020830183610d34565b6020860190610d52565b610e41610e376040830183610d5f565b6040860190610d71565b610e5b610e516060830183610d7e565b6060860190610d90565b82810190610dcc565b910190610dde565b565b610e778161043e565b03610e7e57565b5f80fd5b90503590610e8f82610e6e565b565b50610ea0906020810190610e82565b90565b610eac9061043e565b9052565b610eb981610976565b03610ec057565b5f80fd5b90503590610ed182610eb0565b565b50610ee2906020810190610ec4565b90565b610eee90610976565b9052565b50610f019060208101906102a9565b90565b610f0d9061028a565b9052565b906040610f56610f5e93610f33610f2a5f830183610e91565b5f860190610ea3565b610f4d610f436020830183610ed3565b6020860190610ee5565b82810190610ef2565b910190610f04565b565b9092610f9490610f8a610fa29694610f806101408601975f870190610d04565b6020850190610deb565b60c0830190610f11565b610120818403910152610472565b90565b610fae90610c69565b9052565b610fc6610fc1610fcb92610976565b610780565b610976565b90565b610fd790610fb2565b9052565b610fe4906102e1565b9052565b604090611011611018949695939661100760608401985f850190610fa5565b6020830190610fce565b0190610fdb565b565b67ffffffffffffffff811161103857611034602091610468565b0190565b6106cb565b9061104f61104a8361101a565b610708565b918252565b3d5f1461106f576110643d61103d565b903d5f602084013e5b565b611077610bc1565b9061106d565b93919293611089610bbd565b946060611094610bc1565b956110a66110a185610bee565b610c06565b6110d25f63575e24b46110dd8995976110bd610c58565b906110c6610092565b998a9889978896610c63565b865260048601610f60565b03925af180915f808093919290946111a0575b50155f14611164575050506001611154575b5b9084918461113a6111347f3bd5c123292f86163f091ee729c913d82f91a39dc37615e091c7fc2cb1523c8393610d46565b93610d46565b9361114f611146610092565b928392836104a3565b0390a3565b925061115e611054565b92611102565b9092955061119a9196509561118b600197919361117f610092565b94859360208501610fe8565b602082018103825203826106df565b92611103565b915092506111c5915060603d81116111ce575b6111bd81836106df565b810190610cca565b9190925f6110f0565b503d6111b3565b6111e96111e46111ee9261077d565b610780565b610976565b90565b600f0b90565b611200816111f1565b0361120757565b5f80fd5b90505190611218826111f7565b565b9190604083820312611242578061123661123f925f8601610c89565b9360200161120b565b90565b61009c565b61125090610fb2565b9052565b919361128c6112a5969461128261129794976112786101608801995f890190610d04565b6020870190610deb565b60c0850190610f11565b610120830190611247565b610140818403910152610472565b90565b6112b1906111f1565b9052565b9160206112d69294936112cf60408201965f830190610fa5565b01906112a8565b565b939192936112e4610bbd565b9460406112ef610bc1565b956113016112fc85610bee565b610c06565b6113365f63b47b2fb1611341899597611319846111d5565b611321610c58565b9161132a610092565b9a8b998a988997610c63565b875260048701611254565b03925af1805f809390926113fb575b50155f146113c357505060016113b3575b5b908491846113996113937f1ce30fb311a38fc41e530fa99544fb155a8bbaa438fc757299bf27b916cb935593610d46565b93610d46565b936113ae6113a5610092565b928392836104a3565b0390a3565b92506113bd611054565b92611361565b9194509450936113f56001956113e66113da610092565b938492602084016112b5565b602082018103825203826106df565b92611362565b90925061141f915060403d8111611426575b61141781836106df565b81019061121a565b915f611350565b503d61140d565b5090565b9190811015611441576020020190565b610838565b35611450816100a7565b90565b91909161145e6106c6565b5061147261146d82859061142d565b610756565b9261147c5f610783565b5b8061149a61149461148f86869061142d565b61013f565b9161013f565b10156114e9576114e4906114df6114cd6114c85f6114c26114bd89898891611431565b611446565b90610669565b61069b565b6114da889184909261084c565b61086c565b61079f565b61147d565b505050565b6114fc61150192915f610669565b610ab5565b56fea164736f6c634300081e000a",
        "nonce": "0x5b6",
        "chainId": "0x515"
      },
      "additionalContracts": [],
      "isFixedGasLimit": false
    },
    {
      "hash": null,
      "transactionType": "CREATE",
      "contractName": "YieldDistributionController",
      "contractAddress": "0x244e10aef0b1e1017ac6e27cae485f1f2a4131a1",
      "function": null,
      "arguments": [
        "0x4b992F2Fbf714C0fCBb23baC5130Ace48CaD00cd"
      ],
      "transaction": {
        "from": "0x4b992f2fbf714c0fcbb23bac5130ace48cad00cd",
        "value": "0x0",
        "input": "0x60a0604052346100465761001961001461010b565b61012c565b61002161004b565b611b4d61013282396080518181816103eb01528181610ae901526112210152611b4d90f35b610051565b60405190565b5f80fd5b601f801991011690565b634e487b7160e01b5f52604160045260245ffd5b9061007d90610055565b810190811060018060401b0382111761009557604052565b61005f565b906100ad6100a661004b565b9283610073565b565b5f80fd5b60018060a01b031690565b6100c7906100b3565b90565b6100d3816100be565b036100da57565b5f80fd5b905051906100eb826100ca565b565b9060208282031261010657610103915f016100de565b90565b6100af565b610129611c7f8038038061011e8161009a565b9283398101906100ed565b90565b60805256fe60806040526004361015610013575b610621565b61001d5f3561008c565b8063037aadbe146100875780633dfd3873146100825780637f5a7c7b1461007d5780638da5cb5b146100785780639a08789e14610073578063be3a05521461006e5763d890c3e30361000e576105ed565b610572565b6104db565b61040d565b6103b4565b61030d565b610292565b60e01c90565b60405190565b5f80fd5b5f80fd5b90565b6100ac816100a0565b036100b357565b5f80fd5b905035906100c4826100a3565b565b906020828203126100df576100dc915f016100b7565b90565b61009c565b151590565b6100f2906100e4565b9052565b60018060a01b031690565b61010a906100f6565b90565b61011690610101565b9052565b61ffff1690565b61012a9061011a565b9052565b634e487b7160e01b5f52602160045260245ffd5b6002111561014c57565b61012e565b9061015b82610142565b565b61016690610151565b90565b6101729061015d565b9052565b90565b61018290610176565b9052565b64ffffffffff1690565b61019990610186565b9052565b906101608061027a936101b65f8201515f8601906100e9565b6101c86020820151602086019061010d565b6101da604082015160408601906100e9565b6101ec60608201516060860190610121565b6101fe60808201516080860190610121565b61021060a082015160a0860190610169565b61022260c082015160c0860190610179565b61023460e082015160e0860190610179565b610248610100820151610100860190610121565b61025c610120820151610120860190610121565b610270610140820151610140860190610190565b0151910190610190565b565b9190610290905f610180850194019061019d565b565b346102c2576102be6102ad6102a83660046100c6565b610ab7565b6102b5610092565b9182918261027c565b0390f35b610098565b6102d081610101565b036102d757565b5f80fd5b905035906102e8826102c7565b565b9060208282031261030357610300915f016102db565b90565b61009c565b5f0190565b3461033b576103256103203660046102ea565b610c38565b61032d610092565b8061033781610308565b0390f35b610098565b5f91031261034a57565b61009c565b1c90565b60018060a01b031690565b61036e906008610373930261034f565b610353565b90565b90610381915461035e565b90565b61038f5f5f90610376565b90565b61039b90610101565b9052565b91906103b2905f60208501940190610392565b565b346103e4576103c4366004610340565b6103e06103cf610384565b6103d7610092565b9182918261039f565b0390f35b610098565b7f000000000000000000000000000000000000000000000000000000000000000090565b3461043d5761041d366004610340565b6104396104286103e9565b610430610092565b9182918261039f565b0390f35b610098565b61044b81610176565b0361045257565b5f80fd5b9050359061046382610442565b565b6080818303126104a65761047b825f83016100b7565b926104a361048c8460208501610456565b9361049a8160408601610456565b93606001610456565b90565b61009c565b6104b490610176565b9052565b9160206104d99294936104d260408201965f8301906104ab565b01906104ab565b565b34610510576104f76104ee366004610465565b92919091611102565b9061050c610503610092565b928392836104b8565b0390f35b610098565b9060608061055b9361052d5f8201515f860190610179565b61053f60208201516020860190610179565b61055160408201516040860190610179565b0151910190610179565b565b9190610570905f60808501940190610515565b565b346105a25761059e61058d6105883660046100c6565b6111ee565b610595610092565b9182918261055d565b0390f35b610098565b5f80fd5b90816101809103126105ba5790565b6105a7565b91906101a0838203126105e857806105dc6105e5925f86016100b7565b936020016105ab565b90565b61009c565b3461061c576106066106003660046105bf565b90611b34565b61060e610092565b8061061881610308565b0390f35b610098565b5f80fd5b601f801991011690565b634e487b7160e01b5f52604160045260245ffd5b9061064d90610625565b810190811067ffffffffffffffff82111761066757604052565b61062f565b9061067f610678610092565b9283610643565b565b61068c61018061066c565b90565b5f90565b5f90565b5f90565b5f90565b5f90565b5f90565b6106af610681565b90602080808080808080808080808d6106c661068f565b8152016106d1610693565b8152016106dc61068f565b8152016106e7610697565b8152016106f2610697565b8152016106fd61069b565b81520161070861069f565b81520161071361069f565b81520161071e610697565b815201610729610697565b8152016107346106a3565b81520161073f6106a3565b81525050565b61074d6106a7565b90565b610759906100a0565b90565b9061076690610750565b5f5260205260405f2090565b5f1c90565b60ff1690565b61078961078e91610772565b610777565b90565b61079b905461077d565b90565b906107a8906100e4565b9052565b60081c90565b6107be6107c3916107ac565b610353565b90565b6107d090546107b2565b90565b906107dd90610101565b9052565b60a81c90565b6107f36107f8916107e1565b610777565b90565b61080590546107e7565b90565b60b01c90565b61ffff1690565b61082161082691610808565b61080e565b90565b6108339054610815565b90565b906108409061011a565b9052565b60c01c90565b61085661085b91610844565b61080e565b90565b610868905461084a565b90565b60d01c90565b60ff1690565b6108836108889161086b565b610871565b90565b6108959054610877565b90565b906108a290610151565b9052565b90565b6108b56108ba91610772565b6108a6565b90565b6108c790546108a9565b90565b906108d490610176565b9052565b6108e46108e991610772565b61080e565b90565b6108f690546108d8565b90565b60101c90565b61090b610910916108f9565b61080e565b90565b61091d90546108ff565b90565b60201c90565b64ffffffffff1690565b61093c61094191610920565b610926565b90565b61094e9054610930565b90565b9061095b90610186565b9052565b60481c90565b6109716109769161095f565b610926565b90565b6109839054610965565b90565b90610aa9610a9f6003610997610681565b946109ae6109a65f8301610791565b5f880161079e565b6109c56109bc5f83016107c6565b602088016107d3565b6109dc6109d35f83016107fb565b6040880161079e565b6109f36109ea5f8301610829565b60608801610836565b610a0a610a015f830161085e565b60808801610836565b610a21610a185f830161088b565b60a08801610898565b610a39610a30600183016108bd565b60c088016108ca565b610a51610a48600283016108bd565b60e088016108ca565b610a69610a5f8383016108ec565b6101008801610836565b610a81610a77838301610913565b6101208801610836565b610a99610a8f838301610944565b6101408801610951565b01610979565b6101608401610951565b565b610ab490610986565b90565b610ad8610add91610ac6610745565b50610ad2600191610750565b9061075c565b610aab565b90565b33610b13610b0d7f0000000000000000000000000000000000000000000000000000000000000000610101565b91610101565b03610b2357610b2190610bd9565b565b5f6282b42960e81b815280610b3a60048201610308565b0390fd5b610b4a610b4f91610772565b610353565b90565b610b5c9054610b3e565b90565b90565b610b76610b71610b7b926100f6565b610b5f565b6100f6565b90565b610b8790610b62565b90565b610b9390610b7e565b90565b5f1b90565b90610bac60018060a01b0391610b96565b9181191691161790565b90565b90610bce610bc9610bd592610b8a565b610bb6565b8254610b9b565b9055565b610c3690610be65f610b52565b81610c1a610c147f28f7fb7e7a8b1239a2210fff0089ce39da0362e2dd2eecaa013a8996a37a227993610b8a565b91610b8a565b91610c23610092565b80610c2d81610308565b0390a35f610bb9565b565b610c4190610ae0565b565b5f90565b949392919033610c67610c61610c5c5f610b52565b610101565b91610101565b03610c7957610c7595610ed4565b9091565b5f6282b42960e81b815280610c9060048201610308565b0390fd5b610c9e90516100e4565b90565b90565b610cb8610cb3610cbd92610ca1565b610b5f565b610176565b90565b634e487b7160e01b5f52601160045260245ffd5b610ce3610ce991939293610176565b92610176565b8203918211610cf457565b610cc0565b610d08610d0e91939293610176565b92610176565b91610d1a838202610176565b928184041490151715610d2957565b610cc0565b90565b610d45610d40610d4a92610d2e565b610b5f565b610176565b90565b634e487b7160e01b5f52601260045260245ffd5b610d6d610d7391610176565b91610176565b908115610d7e570490565b610d4d565b610d8d9051610151565b90565b610d9a905161011a565b90565b610db1610dac610db692610ca1565b610b5f565b61011a565b90565b610dcd610dc8610dd29261011a565b610b5f565b610176565b90565b90565b610dec610de7610df192610dd5565b610b5f565b610176565b90565b90610dfe90610750565b5f5260205260405f2090565b90565b90610e195f1991610b96565b9181191691161790565b610e37610e32610e3c92610176565b610b5f565b610176565b90565b90565b90610e57610e52610e5e92610e23565b610e3f565b8254610e0d565b9055565b610e71610e7791939293610176565b92610176565b8201809211610e8257565b610cc0565b90959492610ed294610ec1610ecb92610eb7608096610ead60a088019c5f8901906104ab565b60208701906104ab565b60408501906104ab565b60608301906104ab565b01906104ab565b565b610ee49096949392959195610750565b610ef8610ef36001839061075c565b610aab565b610f0c610f065f8301610c94565b156100e4565b6110e65783610f23610f1d5f610ca4565b91610176565b11806110cc575b611095575b87610f42610f3c5f610ca4565b91610176565b118061106f575b8061104a575b61100d575b50610fc2610f6c610f6760028490610df4565b610e0a565b610f78895f8301610e42565b610f9889610f926001840191610f8d836108bd565b610e62565b90610e42565b610fb888610fb26002840191610fad836108bd565b610e62565b90610e42565b6003869101610e42565b91929092611008878790610ff67f4d6f9f8d03a38c2bd0d906c4d1fc6630ce726a34ed177e9fcebd3eb9a5bca85396610750565b96610fff610092565b95869586610e87565b0390a2565b6110439196506110329061102c61102760808b9301610d90565b610db9565b90610cf9565b61103d612710610dd8565b90610d61565b945f610f54565b5061105760808201610d90565b6110696110635f610d9d565b9161011a565b11610f4f565b5061107c60a08201610d83565b61108f6110896001610151565b91610151565b14610f49565b96506110c66110af836110a9878790610cd4565b90610cf9565b6110c0670de0b6b3a7640000610d31565b90610d61565b96610f2f565b50846110e06110da86610176565b91610176565b11610f2a565b5f6306b7c75960e31b8152806110fe60048201610308565b0390fd5b9061111f939291611111610c43565b611119610c43565b90610c47565b9091565b61112d608061066c565b90565b611138611123565b9060208080808561114761069f565b81520161115261069f565b81520161115d61069f565b81520161116861069f565b81525050565b611176611130565b90565b906111e06111d7600361118a611123565b946111a16111995f83016108bd565b5f88016108ca565b6111b96111b0600183016108bd565b602088016108ca565b6111d16111c8600283016108bd565b604088016108ca565b016108bd565b606084016108ca565b565b6111eb90611179565b90565b61120f611214916111fd61116e565b50611209600291610750565b90610df4565b6111e2565b90565b903361124b6112457f0000000000000000000000000000000000000000000000000000000000000000610101565b91610101565b0361125b576112599161195b565b565b5f6282b42960e81b81528061127260048201610308565b0390fd5b35611280816102c7565b90565b61129761129261129c92610ca1565b610b5f565b6100f6565b90565b6112a890611283565b90565b6112b48161011a565b036112bb57565b5f80fd5b356112c9816112ab565b90565b6112e06112db6112e592610dd5565b610b5f565b61011a565b90565b356112f281610442565b90565b6112fe816100e4565b0361130557565b5f80fd5b35611313816112f5565b90565b9061132260ff91610b96565b9181191691161790565b611335906100e4565b90565b90565b9061135061134b6113579261132c565b611338565b8254611316565b9055565b60081b90565b90611374610100600160a81b039161135b565b9181191691161790565b9061139361138e61139a92610b8a565b610bb6565b8254611361565b9055565b60a81b90565b906113b360ff60a81b9161139e565b9181191691161790565b906113d26113cd6113d99261132c565b611338565b82546113a4565b9055565b60b01b90565b906113f361ffff60b01b916113dd565b9181191691161790565b61141161140c6114169261011a565b610b5f565b61011a565b90565b90565b9061143161142c611438926113fd565b611419565b82546113e3565b9055565b60c01b90565b9061145261ffff60c01b9161143c565b9181191691161790565b9061147161146c611478926113fd565b611419565b8254611442565b9055565b6002111561148657565b5f80fd5b356114948161147c565b90565b60d01b90565b906114ac60ff60d01b91611497565b9181191691161790565b6114bf90610151565b90565b90565b906114da6114d56114e1926114b6565b6114c2565b825461149d565b9055565b906114f261ffff91610b96565b9181191691161790565b9061151161150c611518926113fd565b611419565b82546114e5565b9055565b60101b90565b9061153163ffff00009161151c565b9181191691161790565b9061155061154b611557926113fd565b611419565b8254611522565b9055565b61156481610186565b0361156b57565b5f80fd5b356115798161155b565b90565b60201b90565b9061159668ffffffffff000000009161157c565b9181191691161790565b6115b46115af6115b992610186565b610b5f565b610186565b90565b90565b906115d46115cf6115db926115a0565b6115bc565b8254611582565b9055565b60481b90565b906115fe6dffffffffff000000000000000000916115df565b9181191691161790565b9061161d611618611624926115a0565b6115bc565b82546115e5565b9055565b90611749610160600361174f9461164c5f82016116465f8801611309565b9061133b565b6116645f820161165e60208801611276565b9061137e565b61167c5f820161167660408801611309565b906113bd565b6116945f820161168e606088016112bf565b9061141c565b6116ac5f82016116a6608088016112bf565b9061145c565b6116c45f82016116be60a0880161148a565b906114c5565b6116dd600182016116d760c088016112e8565b90610e42565b6116f6600282016116f060e088016112e8565b90610e42565b61170f82820161170961010088016112bf565b906114fc565b61172882820161172261012088016112bf565b9061153b565b61174182820161173b610140880161156f565b906115bf565b01920161156f565b90611608565b565b9061175b91611628565b565b9050359061176a826112f5565b565b5061177b90602081019061175d565b90565b5061178d9060208101906102db565b90565b9050359061179d826112ab565b565b506117ae906020810190611790565b90565b905035906117be8261147c565b565b506117cf9060208101906117b1565b90565b506117e1906020810190610456565b90565b905035906117f18261155b565b565b506118029060208101906117e4565b90565b9061016061193b6119439361182861181f5f83018361176c565b5f8601906100e9565b611842611838602083018361177e565b602086019061010d565b61185c611852604083018361176c565b60408601906100e9565b61187661186c606083018361179f565b6060860190610121565b611890611886608083018361179f565b6080860190610121565b6118aa6118a060a08301836117c0565b60a0860190610169565b6118c46118ba60c08301836117d2565b60c0860190610179565b6118de6118d460e08301836117d2565b60e0860190610179565b6118fa6118ef61010083018361179f565b610100860190610121565b61191661190b61012083018361179f565b610120860190610121565b6119326119276101408301836117f3565b610140860190610190565b828101906117f3565b910190610190565b565b9190611959905f6101808501940190611805565b565b61196760208301611276565b61198161197b6119765f61129f565b610101565b91610101565b14611b1857611992608083016112bf565b6119a66119a06127106112cc565b9161011a565b11611afc576119b760e083016112e8565b6119d46119ce6119c960c086016112e8565b610176565b91610176565b1180611ad6575b611aba576119ec61012083016112bf565b611a0a611a046119ff61010086016112bf565b61011a565b9161011a565b1180611a93575b611a7757611a1e90610750565b611a3382611a2e6001849061075c565b611751565b611a72611a607fde6a5a705833b1b2c038799f2ff3cbb7a1a28331ce8274496e50701733a2de7b92610750565b92611a69610092565b91829182611945565b0390a2565b5f6306b7c75960e31b815280611a8f60048201610308565b0390fd5b50611aa161010083016112bf565b611ab3611aad5f610d9d565b9161011a565b1415611a11565b5f6306b7c75960e31b815280611ad260048201610308565b0390fd5b50611ae360c083016112e8565b611af5611aef5f610ca4565b91610176565b14156119db565b5f6306b7c75960e31b815280611b1460048201610308565b0390fd5b5f6306b7c75960e31b815280611b3060048201610308565b0390fd5b90611b3e91611217565b56fea164736f6c634300081e000a0000000000000000000000004b992f2fbf714c0fcbb23bac5130ace48cad00cd",
        "nonce": "0x5b7",
        "chainId": "0x515"
      },
      "additionalContracts": [],
      "isFixedGasLimit": false
    },
    {
      "hash": null,
      "transactionType": "CREATE",
      "contractName": "MockRebasingLST",
      "contractAddress": "0xb095df6c168c14f970b0d098754d84c31b7e33d9",
      "function": null,
      "arguments": [
        "Lifecycle stETH",
        "lstETH",
        "2000"
      ],
      "transaction": {
        "from": "0x4b992f2fbf714c0fcbb23bac5130ace48cad00cd",
        "value": "0x0",
        "input": "0x60c06040523461006c5761001a6100146101f7565b916102aa565b610022610071565b6115d561051a82396080518181816105cf01528181610b1d01528181610b930152610c88015260a05181818161030b0152818161119d0152818161122d015261127501526115d590f35b610077565b60405190565b5f80fd5b601f801991011690565b634e487b7160e01b5f52604160045260245ffd5b906100a39061007b565b810190811060018060401b038211176100bb57604052565b610085565b906100d36100cc610071565b9283610099565b565b5f80fd5b5f80fd5b5f80fd5b5f80fd5b60018060401b038111610101576100fd60209161007b565b0190565b610085565b90825f9392825e0152565b90929192610126610121826100e5565b6100c0565b938185526020850190828401116101425761014092610106565b565b6100e1565b9080601f830112156101655781602061016293519101610111565b90565b6100dd565b90565b6101768161016a565b0361017d57565b5f80fd5b9050519061018e8261016d565b565b90916060828403126101f2575f82015160018060401b0381116101ed57836101b9918401610147565b9260208301519060018060401b0382116101e8576101dc816101e5938601610147565b93604001610181565b90565b6100d9565b6100d9565b6100d5565b610215611aef8038038061020a816100c0565b928339810190610190565b909192565b90565b90565b61023461022f6102399261021a565b61021d565b61016a565b90565b61024d670de0b6b3a7640000610220565b90565b5f1b90565b906102615f1991610250565b9181191691161790565b61027f61027a6102849261016a565b61021d565b61016a565b90565b90565b9061029f61029a6102a69261026b565b610287565b8254610255565b9055565b906102b491610501565b336080526102ca6102c361023c565b600561028a565b60a052565b5190565b634e487b7160e01b5f52602260045260245ffd5b9060016002830492168015610307575b602083101461030257565b6102d3565b91607f16916102f7565b5f5260205f2090565b601f602091010490565b1b90565b9190600861034391029161033d5f1984610324565b92610324565b9181191691161790565b919061036361035e61036b9361026b565b610287565b908354610328565b9055565b5f90565b6103859161037f61036f565b9161034d565b565b5b818110610393575050565b806103a05f600193610373565b01610388565b9190601f81116103b6575b505050565b6103c26103e793610311565b9060206103ce8461031a565b830193106103ef575b6103e09061031a565b0190610387565b5f80806103b1565b91506103e0819290506103d7565b1c90565b90610411905f19906008026103fd565b191690565b8161042091610401565b906002021790565b90610432816102cf565b9060018060401b0382116104f0576104548261044e85546102e7565b856103a6565b602090601f831160011461048857918091610477935f9261047c575b5050610416565b90555b565b90915001515f80610470565b601f1983169161049785610311565b925f5b8181106104d8575091600293918560019694106104be575b5050500201905561047a565b6104ce910151601f841690610401565b90555f80806104b2565b9193602060018192878701518155019501920161049a565b610085565b906104ff91610428565b565b906105106105179260036104f5565b60046104f5565b56fe60806040526004361015610013575b6108a6565b61001d5f3561015c565b806306fdde0314610157578063095ea7b31461015257806315d1772a1461014d57806318160ddd1461014857806323b872dd146101435780632986c0e51461013e578063313ce567146101395780633a98ef391461013457806340a5737f1461012f57806340c10f191461012a57806370a08231146101255780638da5cb5b1461012057806395d89b411461011b5780639c26d4ba14610116578063a9059cbb14610111578063dd62ed3e1461010c578063eced552614610107578063f5eb42dc14610102578063fa1e49dc146100fd5763fd887ee10361000e57610871565b61083c565b610807565b6107d2565b61075b565b6106f8565b6106c5565b610648565b610613565b610598565b610546565b610513565b6104bb565b610486565b610429565b6103f3565b610384565b61034f565b6102d3565b6101ea565b60e01c90565b60405190565b5f80fd5b5f80fd5b5f91031261017a57565b61016c565b5190565b60209181520190565b90825f9392825e0152565b601f801991011690565b6101c06101c96020936101ce936101b78161017f565b93848093610183565b9586910161018c565b610197565b0190565b6101e79160208201915f8184039101526101a1565b90565b3461021a576101fa366004610170565b610216610205610a03565b61020d610162565b918291826101d2565b0390f35b610168565b60018060a01b031690565b6102339061021f565b90565b61023f8161022a565b0361024657565b5f80fd5b9050359061025782610236565b565b90565b61026581610259565b0361026c57565b5f80fd5b9050359061027d8261025c565b565b91906040838203126102a7578061029b6102a4925f860161024a565b93602001610270565b90565b61016c565b151590565b6102ba906102ac565b9052565b91906102d1905f602085019401906102b1565b565b34610304576103006102ef6102e936600461027f565b90610a1d565b6102f7610162565b918291826102be565b0390f35b610168565b7f000000000000000000000000000000000000000000000000000000000000000090565b61033690610259565b9052565b919061034d905f6020850194019061032d565b565b3461037f5761035f366004610170565b61037b61036a610309565b610372610162565b9182918261033a565b0390f35b610168565b346103b457610394366004610170565b6103b061039f610a6c565b6103a7610162565b9182918261033a565b0390f35b610168565b90916060828403126103ee576103eb6103d4845f850161024a565b936103e2816020860161024a565b93604001610270565b90565b61016c565b346104245761042061040f6104093660046103b9565b91610a82565b610417610162565b918291826102be565b0390f35b610168565b3461045957610439366004610170565b610455610444610ab1565b61044c610162565b9182918261033a565b0390f35b610168565b60ff1690565b61046d9061045e565b9052565b9190610484905f60208501940190610464565b565b346104b657610496366004610170565b6104b26104a1610aea565b6104a9610162565b91829182610471565b0390f35b610168565b346104eb576104cb366004610170565b6104e76104d6610b00565b6104de610162565b9182918261033a565b0390f35b610168565b9060208282031261050957610506915f01610270565b90565b61016c565b5f0190565b346105415761052b6105263660046104f0565b610b7e565b610533610162565b8061053d8161050e565b0390f35b610168565b346105755761055f61055936600461027f565b90610bf5565b610567610162565b806105718161050e565b0390f35b610168565b9060208282031261059357610590915f0161024a565b90565b61016c565b346105c8576105c46105b36105ae36600461057a565b610c4b565b6105bb610162565b9182918261033a565b0390f35b610168565b7f000000000000000000000000000000000000000000000000000000000000000090565b6105fa9061022a565b9052565b9190610611905f602085019401906105f1565b565b3461064357610623366004610170565b61063f61062e6105cd565b610636610162565b918291826105fe565b0390f35b610168565b3461067857610658366004610170565b610674610663610c69565b61066b610162565b918291826101d2565b0390f35b610168565b61ffff1690565b61068d8161067d565b0361069457565b5f80fd5b905035906106a582610684565b565b906020828203126106c0576106bd915f01610698565b90565b61016c565b346106f3576106dd6106d83660046106a7565b610e0c565b6106e5610162565b806106ef8161050e565b0390f35b610168565b346107295761072561071461070e36600461027f565b90610e17565b61071c610162565b918291826102be565b0390f35b610168565b9190604083820312610756578061074a610753925f860161024a565b9360200161024a565b90565b61016c565b3461078c5761078861077761077136600461072e565b90610e4f565b61077f610162565b9182918261033a565b0390f35b610168565b90565b90565b6107ab6107a66107b092610791565b610794565b610259565b90565b6107c4670de0b6b3a7640000610797565b90565b6107cf6107b3565b90565b34610802576107e2366004610170565b6107fe6107ed6107c7565b6107f5610162565b9182918261033a565b0390f35b610168565b346108375761083361082261081d36600461057a565b610e77565b61082a610162565b9182918261033a565b0390f35b610168565b3461086c576108686108576108523660046104f0565b610e8c565b61085f610162565b9182918261033a565b0390f35b610168565b346108a15761089d61088c6108873660046104f0565b610e98565b610894610162565b9182918261033a565b0390f35b610168565b5f80fd5b606090565b634e487b7160e01b5f52602260045260245ffd5b90600160028304921680156108e3575b60208310146108de57565b6108af565b91607f16916108d3565b60209181520190565b5f5260205f2090565b905f9291805490610919610912836108c3565b80946108ed565b916001811690815f146109705750600114610934575b505050565b61094191929394506108f6565b915f925b81841061095857505001905f808061092f565b60018160209295939554848601520191019290610945565b92949550505060ff19168252151560200201905f808061092f565b90610995916108ff565b90565b634e487b7160e01b5f52604160045260245ffd5b906109b690610197565b810190811067ffffffffffffffff8211176109d057604052565b610998565b906109f56109ee926109e5610162565b9384809261098b565b03836109ac565b565b610a00906109d5565b90565b610a0b6108aa565b50610a1660036109f7565b90565b5f90565b610a3a91610a29610a19565b50610a32610ea8565b919091610eb5565b600190565b5f90565b5f1c90565b90565b610a57610a5c91610a43565b610a48565b90565b610a699054610a4b565b90565b610a74610a3f565b50610a7f6002610a5f565b90565b91610aac92610a8f610a19565b50610aa4610a9b610ea8565b82908491610f05565b919091610fbc565b600190565b610ab9610a3f565b50610ac46005610a5f565b90565b5f90565b90565b610ae2610add610ae792610acb565b610794565b61045e565b90565b610af2610ac7565b50610afd6012610ace565b90565b610b08610a3f565b50610b11610a6c565b90565b33610b47610b417f000000000000000000000000000000000000000000000000000000000000000061022a565b9161022a565b03610b5757610b5590610b73565b565b5f6330cd747160e01b815280610b6f6004820161050e565b0390fd5b610b7c90611117565b565b610b8790610b14565b565b9033610bbd610bb77f000000000000000000000000000000000000000000000000000000000000000061022a565b9161022a565b03610bcd57610bcb91610be9565b565b5f6330cd747160e01b815280610be56004820161050e565b0390fd5b90610bf3916112de565b565b90610bff91610b89565b565b610c15610c10610c1a9261021f565b610794565b61021f565b90565b610c2690610c01565b90565b610c3290610c1d565b90565b90610c3f90610c29565b5f5260205260405f2090565b610c61610c6691610c5a610a3f565b505f610c35565b610a5f565b90565b610c716108aa565b50610c7c60046109f7565b90565b33610cb2610cac7f000000000000000000000000000000000000000000000000000000000000000061022a565b9161022a565b03610cc257610cc090610dbd565b565b5f6330cd747160e01b815280610cda6004820161050e565b0390fd5b610cf2610ced610cf79261067d565b610794565b610259565b90565b634e487b7160e01b5f52601160045260245ffd5b610d1d610d2391939293610259565b92610259565b91610d2f838202610259565b928184041490151715610d3e57565b610cfa565b90565b610d5a610d55610d5f92610d43565b610794565b610259565b90565b634e487b7160e01b5f52601260045260245ffd5b610d82610d8891610259565b91610259565b908115610d93570490565b610d62565b610da7610dad91939293610259565b92610259565b8201809211610db857565b610cfa565b610e05610e0a91610dff610dee610dd46005610a5f565b92610de8610de26005610a5f565b91610cde565b90610d0e565b610df9612710610d46565b90610d76565b90610d98565b611117565b565b610e1590610c7f565b565b610e3491610e23610a19565b50610e2c610ea8565b919091610fbc565b600190565b90610e4390610c29565b5f5260205260405f2090565b610e7491610e6a610e6f92610e62610a3f565b506001610e39565b610c35565b610a5f565b90565b610e8990610e83610a3f565b50610c4b565b90565b610e94610a3f565b5090565b610ea0610a3f565b5090565b5f90565b610eb0610ea4565b503390565b91610ec3929160019261133c565b565b604090610eee610ef59496959396610ee460608401985f8501906105f1565b602083019061032d565b019061032d565b565b90610f029103610259565b90565b929192610f13818390610e4f565b9081610f28610f225f19610259565b91610259565b03610f35575b5050509050565b81610f48610f4287610259565b91610259565b10610f6e57610f659394610f5d919392610ef7565b905f9261133c565b805f8080610f2e565b50610f8d849291925f938493637dc7a0d960e11b855260048501610ec5565b0390fd5b90565b610fa8610fa3610fad92610f91565b610794565b61021f565b90565b610fb990610f94565b90565b9182610fd8610fd2610fcd5f610fb0565b61022a565b9161022a565b146110325781610ff8610ff2610fed5f610fb0565b61022a565b9161022a565b1461100b5761100992919091611459565b565b61102e6110175f610fb0565b5f91829163ec442f0560e01b8352600483016105fe565b0390fd5b61105561103e5f610fb0565b5f918291634b637e8f60e11b8352600483016105fe565b0390fd5b61106d61106861107292610f91565b610794565b610259565b90565b61108461108a91939293610259565b92610259565b820391821161109557565b610cfa565b9160206110bb9294936110b460408201965f83019061032d565b019061032d565b565b5f1b90565b906110ce5f19916110bd565b9181191691161790565b6110ec6110e76110f192610259565b610794565b610259565b90565b90565b9061110c611107611113926110d8565b6110f4565b82546110c2565b9055565b8061113361112d6111286005610a5f565b610259565b91610259565b1080156112c4575b6112a8578061115b6111556111506005610a5f565b610259565b91610259565b146112a55761119b61118b61117a836111746005610a5f565b90611075565b611185612710610d46565b90610d0e565b6111956005610a5f565b90610d76565b7f00000000000000000000000000000000000000000000000000000000000000006111ce6111c85f611059565b91610259565b118061126b575b61122b57506111e46005610a5f565b6111ef8260056110f7565b907f8d01b778e641f65fc8a5cae34cc83e082ab8b2149b3c1bb3925913116fe4633f9161122661121d610162565b9283928361109a565b0390a1565b7f0000000000000000000000000000000000000000000000000000000000000000906112675f928392632772339560e01b84526004840161109a565b0390fd5b508061129f6112997f0000000000000000000000000000000000000000000000000000000000000000610259565b91610259565b116111d5565b50565b5f6363df817160e01b8152806112c06004820161050e565b0390fd5b50806112d86112d25f611059565b91610259565b1461113b565b806112f96112f36112ee5f610fb0565b61022a565b9161022a565b14611315576113139161130b5f610fb0565b919091611459565b565b6113386113215f610fb0565b5f91829163ec442f0560e01b8352600483016105fe565b0390fd5b90928161135961135361134e5f610fb0565b61022a565b9161022a565b14611424578361137961137361136e5f610fb0565b61022a565b9161022a565b146113fd5761139d8361139861139160018690610e39565b8790610c35565b6110f7565b6113a7575b505050565b9190916113f26113e06113da7f8c5be1e5ebec7d5bd14f71427d1e84f3dd0314c0f7b2291e5b200ac8c7c3b92593610c29565b93610c29565b936113e9610162565b9182918261033a565b0390a35f80806113a2565b6114206114095f610fb0565b5f918291634a1406b160e11b8352600483016105fe565b0390fd5b6114476114305f610fb0565b5f91829163e602df0560e01b8352600483016105fe565b0390fd5b906114569101610259565b90565b9190918061147761147161146c5f610fb0565b61022a565b9161022a565b145f146115585761149b6114948361148f6002610a5f565b610d98565b60026110f7565b5b826114b76114b16114ac5f610fb0565b61022a565b9161022a565b145f1461152c576114db6114d4836114cf6002610a5f565b610ef7565b60026110f7565b5b91909161152761151561150f7fddf252ad1be2c89b69c2b068fc378daa952ba7f163c4a11628f55a4df523b3ef93610c29565b93610c29565b9361151e610162565b9182918261033a565b0390a3565b6115538261154d61153e5f8790610c35565b9161154883610a5f565b61144b565b906110f7565b6114dc565b61156b6115665f8390610c35565b610a5f565b8061157e61157885610259565b91610259565b106115a6576115916115a1918490610ef7565b61159c5f8490610c35565b6110f7565b61149c565b906115c49091925f93849363391434e360e21b855260048501610ec5565b0390fdfea164736f6c634300081e000a000000000000000000000000000000000000000000000000000000000000006000000000000000000000000000000000000000000000000000000000000000a000000000000000000000000000000000000000000000000000000000000007d0000000000000000000000000000000000000000000000000000000000000000f4c6966656379636c65207374455448000000000000000000000000000000000000000000000000000000000000000000000000000000000000000000000000066c73744554480000000000000000000000000000000000000000000000000000",
        "nonce": "0x5b8",
        "chainId": "0x515"
      },
      "additionalContracts": [],
      "isFixedGasLimit": false
    },
    {
      "hash": null,
      "transactionType": "CREATE",
      "contractName": "MockNonRebasingLST",
      "contractAddress": "0x7be88fc99b1d19b4a41118af0c4819a99204035d",
      "function": null,
      "arguments": [
        "Lifecycle qUSD",
        "lqUSD"
      ],
      "transaction": {
        "from": "0x4b992f2fbf714c0fcbb23bac5130ace48cad00cd",
        "value": "0x0",
        "input": "0x60a0604052346100475761001a61001461019e565b9061023f565b61002261004c565b610fa46104b5823960805181818161044b015281816108a201526109b90152610fa490f35b610052565b60405190565b5f80fd5b601f801991011690565b634e487b7160e01b5f52604160045260245ffd5b9061007e90610056565b810190811060018060401b0382111761009657604052565b610060565b906100ae6100a761004c565b9283610074565b565b5f80fd5b5f80fd5b5f80fd5b5f80fd5b60018060401b0381116100dc576100d8602091610056565b0190565b610060565b90825f9392825e0152565b909291926101016100fc826100c0565b61009b565b9381855260208501908284011161011d5761011b926100e1565b565b6100bc565b9080601f830112156101405781602061013d935191016100ec565b90565b6100b8565b919091604081840312610199575f81015160018060401b038111610194578361016f918301610122565b92602082015160018060401b03811161018f5761018c9201610122565b90565b6100b4565b6100b4565b6100b0565b6101bc611459803803806101b18161009b565b928339810190610145565b9091565b90565b90565b90565b6101dd6101d86101e2926101c0565b6101c6565b6101c3565b90565b5f1b90565b906101f65f19916101e5565b9181191691161790565b61021461020f610219926101c3565b6101c6565b6101c3565b90565b90565b9061023461022f61023b92610200565b61021c565b82546101ea565b9055565b906102499161049c565b33608052610268610261670de0b6b3a76400006101c9565b600561021f565b565b5190565b634e487b7160e01b5f52602260045260245ffd5b90600160028304921680156102a2575b602083101461029d57565b61026e565b91607f1691610292565b5f5260205f2090565b601f602091010490565b1b90565b919060086102de9102916102d85f19846102bf565b926102bf565b9181191691161790565b91906102fe6102f961030693610200565b61021c565b9083546102c3565b9055565b5f90565b6103209161031a61030a565b916102e8565b565b5b81811061032e575050565b8061033b5f60019361030e565b01610323565b9190601f8111610351575b505050565b61035d610382936102ac565b906020610369846102b5565b8301931061038a575b61037b906102b5565b0190610322565b5f808061034c565b915061037b81929050610372565b1c90565b906103ac905f1990600802610398565b191690565b816103bb9161039c565b906002021790565b906103cd8161026a565b9060018060401b03821161048b576103ef826103e98554610282565b85610341565b602090601f831160011461042357918091610412935f92610417575b50506103b1565b90555b565b90915001515f8061040b565b601f19831691610432856102ac565b925f5b81811061047357509160029391856001969410610459575b50505002019055610415565b610469910151601f84169061039c565b90555f808061044d565b91936020600181928787015181550195019201610435565b610060565b9061049a916103c3565b565b906104ab6104b2926003610490565b6004610490565b56fe60806040526004361015610013575b610654565b61001d5f356100ec565b806306fdde03146100e7578063095ea7b3146100e257806318160ddd146100dd57806323b872dd146100d8578063313ce567146100d357806340c10f19146100ce57806370a08231146100c95780638da5cb5b146100c457806391a42389146100bf57806395d89b41146100ba578063a9059cbb146100b5578063dd422fd3146100b05763dd62ed3e0361000e5761061e565b6105be565b61056a565b610535565b610500565b61048f565b610414565b6103c2565b610388565b61032a565b6102bb565b610263565b61017a565b60e01c90565b60405190565b5f80fd5b5f80fd5b5f91031261010a57565b6100fc565b5190565b60209181520190565b90825f9392825e0152565b601f801991011690565b61015061015960209361015e936101478161010f565b93848093610113565b9586910161011c565b610127565b0190565b6101779160208201915f818403910152610131565b90565b346101aa5761018a366004610100565b6101a66101956107b1565b61019d6100f2565b91829182610162565b0390f35b6100f8565b60018060a01b031690565b6101c3906101af565b90565b6101cf816101ba565b036101d657565b5f80fd5b905035906101e7826101c6565b565b90565b6101f5816101e9565b036101fc57565b5f80fd5b9050359061020d826101ec565b565b9190604083820312610237578061022b610234925f86016101da565b93602001610200565b90565b6100fc565b151590565b61024a9061023c565b9052565b9190610261905f60208501940190610241565b565b346102945761029061027f61027936600461020f565b906107cb565b6102876100f2565b9182918261024e565b0390f35b6100f8565b6102a2906101e9565b9052565b91906102b9905f60208501940190610299565b565b346102eb576102cb366004610100565b6102e76102d6610817565b6102de6100f2565b918291826102a6565b0390f35b6100f8565b90916060828403126103255761032261030b845f85016101da565b9361031981602086016101da565b93604001610200565b90565b6100fc565b3461035b576103576103466103403660046102f0565b9161082d565b61034e6100f2565b9182918261024e565b0390f35b6100f8565b60ff1690565b61036f90610360565b9052565b9190610386905f60208501940190610366565b565b346103b857610398366004610100565b6103b46103a3610882565b6103ab6100f2565b91829182610373565b0390f35b6100f8565b5f0190565b346103f1576103db6103d536600461020f565b90610904565b6103e36100f2565b806103ed816103bd565b0390f35b6100f8565b9060208282031261040f5761040c915f016101da565b90565b6100fc565b346104445761044061042f61042a3660046103f6565b61095a565b6104376100f2565b918291826102a6565b0390f35b6100f8565b7f000000000000000000000000000000000000000000000000000000000000000090565b610476906101ba565b9052565b919061048d905f6020850194019061046d565b565b346104bf5761049f366004610100565b6104bb6104aa610449565b6104b26100f2565b9182918261047a565b0390f35b6100f8565b1c90565b90565b6104db9060086104e093026104c4565b6104c8565b90565b906104ee91546104cb565b90565b6104fd60055f906104e3565b90565b3461053057610510366004610100565b61052c61051b6104f1565b6105236100f2565b918291826102a6565b0390f35b6100f8565b3461056557610545366004610100565b610561610550610978565b6105586100f2565b91829182610162565b0390f35b6100f8565b3461059b5761059761058661058036600461020f565b9061098e565b61058e6100f2565b9182918261024e565b0390f35b6100f8565b906020828203126105b9576105b6915f01610200565b90565b6100fc565b346105ec576105d66105d13660046105a0565b610a76565b6105de6100f2565b806105e8816103bd565b0390f35b6100f8565b9190604083820312610619578061060d610616925f86016101da565b936020016101da565b90565b6100fc565b3461064f5761064b61063a6106343660046105f1565b90610a97565b6106426100f2565b918291826102a6565b0390f35b6100f8565b5f80fd5b606090565b634e487b7160e01b5f52602260045260245ffd5b9060016002830492168015610691575b602083101461068c57565b61065d565b91607f1691610681565b60209181520190565b5f5260205f2090565b905f92918054906106c76106c083610671565b809461069b565b916001811690815f1461071e57506001146106e2575b505050565b6106ef91929394506106a4565b915f925b81841061070657505001905f80806106dd565b600181602092959395548486015201910192906106f3565b92949550505060ff19168252151560200201905f80806106dd565b90610743916106ad565b90565b634e487b7160e01b5f52604160045260245ffd5b9061076490610127565b810190811067ffffffffffffffff82111761077e57604052565b610746565b906107a361079c926107936100f2565b93848092610739565b038361075a565b565b6107ae90610783565b90565b6107b9610658565b506107c460036107a5565b90565b5f90565b6107e8916107d76107c7565b506107e0610ac3565b919091610ad0565b600190565b5f90565b5f1c90565b610802610807916107f1565b6104c8565b90565b61081490546107f6565b90565b61081f6107ed565b5061082a600261080a565b90565b916108579261083a6107c7565b5061084f610846610ac3565b82908491610b20565b919091610bd7565b600190565b5f90565b90565b90565b61087a61087561087f92610860565b610863565b610360565b90565b61088a61085c565b506108956012610866565b90565b90336108cc6108c67f00000000000000000000000000000000000000000000000000000000000000006101ba565b916101ba565b036108dc576108da916108f8565b565b5f6330cd747160e01b8152806108f4600482016103bd565b0390fd5b9061090291610c74565b565b9061090e91610898565b565b61092461091f610929926101af565b610863565b6101af565b90565b61093590610910565b90565b6109419061092c565b90565b9061094e90610938565b5f5260205260405f2090565b610970610975916109696107ed565b505f610944565b61080a565b90565b610980610658565b5061098b60046107a5565b90565b6109ab9161099a6107c7565b506109a3610ac3565b919091610bd7565b600190565b336109e36109dd7f00000000000000000000000000000000000000000000000000000000000000006101ba565b916101ba565b036109f3576109f190610a69565b565b5f6330cd747160e01b815280610a0b600482016103bd565b0390fd5b5f1b90565b90610a205f1991610a0f565b9181191691161790565b610a3e610a39610a43926101e9565b610863565b6101e9565b90565b90565b90610a5e610a59610a6592610a2a565b610a46565b8254610a14565b9055565b610a74906005610a49565b565b610a7f906109b0565b565b90610a8b90610938565b5f5260205260405f2090565b610abc91610ab2610ab792610aaa6107ed565b506001610a81565b610944565b61080a565b90565b5f90565b610acb610abf565b503390565b91610ade9291600192610cd2565b565b604090610b09610b109496959396610aff60608401985f85019061046d565b6020830190610299565b0190610299565b565b90610b1d91036101e9565b90565b929192610b2e818390610a97565b9081610b43610b3d5f196101e9565b916101e9565b03610b50575b5050509050565b81610b63610b5d876101e9565b916101e9565b10610b8957610b809394610b78919392610b12565b905f92610cd2565b805f8080610b49565b50610ba8849291925f938493637dc7a0d960e11b855260048501610ae0565b0390fd5b90565b610bc3610bbe610bc892610bac565b610863565b6101af565b90565b610bd490610baf565b90565b9182610bf3610bed610be85f610bcb565b6101ba565b916101ba565b14610c4d5781610c13610c0d610c085f610bcb565b6101ba565b916101ba565b14610c2657610c2492919091610e28565b565b610c49610c325f610bcb565b5f91829163ec442f0560e01b83526004830161047a565b0390fd5b610c70610c595f610bcb565b5f918291634b637e8f60e11b83526004830161047a565b0390fd5b80610c8f610c89610c845f610bcb565b6101ba565b916101ba565b14610cab57610ca991610ca15f610bcb565b919091610e28565b565b610cce610cb75f610bcb565b5f91829163ec442f0560e01b83526004830161047a565b0390fd5b909281610cef610ce9610ce45f610bcb565b6101ba565b916101ba565b14610dba5783610d0f610d09610d045f610bcb565b6101ba565b916101ba565b14610d9357610d3383610d2e610d2760018690610a81565b8790610944565b610a49565b610d3d575b505050565b919091610d88610d76610d707f8c5be1e5ebec7d5bd14f71427d1e84f3dd0314c0f7b2291e5b200ac8c7c3b92593610938565b93610938565b93610d7f6100f2565b918291826102a6565b0390a35f8080610d38565b610db6610d9f5f610bcb565b5f918291634a1406b160e11b83526004830161047a565b0390fd5b610ddd610dc65f610bcb565b5f91829163e602df0560e01b83526004830161047a565b0390fd5b634e487b7160e01b5f52601160045260245ffd5b610e04610e0a919392936101e9565b926101e9565b8201809211610e1557565b610de1565b90610e2591016101e9565b90565b91909180610e46610e40610e3b5f610bcb565b6101ba565b916101ba565b145f14610f2757610e6a610e6383610e5e600261080a565b610df5565b6002610a49565b5b82610e86610e80610e7b5f610bcb565b6101ba565b916101ba565b145f14610efb57610eaa610ea383610e9e600261080a565b610b12565b6002610a49565b5b919091610ef6610ee4610ede7fddf252ad1be2c89b69c2b068fc378daa952ba7f163c4a11628f55a4df523b3ef93610938565b93610938565b93610eed6100f2565b918291826102a6565b0390a3565b610f2282610f1c610f0d5f8790610944565b91610f178361080a565b610e1a565b90610a49565b610eab565b610f3a610f355f8390610944565b61080a565b80610f4d610f47856101e9565b916101e9565b10610f7557610f60610f70918490610b12565b610f6b5f8490610944565b610a49565b610e6b565b90610f939091925f93849363391434e360e21b855260048501610ae0565b0390fdfea164736f6c634300081e000a00000000000000000000000000000000000000000000000000000000000000400000000000000000000000000000000000000000000000000000000000000080000000000000000000000000000000000000000000000000000000000000000e4c6966656379636c65207155534400000000000000000000000000000000000000000000000000000000000000000000000000000000000000000000000000056c71555344000000000000000000000000000000000000000000000000000000",
        "nonce": "0x5b9",
        "chainId": "0x515"
      },
      "additionalContracts": [],
      "isFixedGasLimit": false
    },
    {
      "hash": null,
      "transactionType": "CREATE2",
      "contractName": "LSTOptimizedHook",
      "contractAddress": "0xaaabb07ec60c3a52970bd43bf31ad2fcbe2ac0c0",
      "function": null,
      "arguments": [
        "0x1f601976fB1905eBC488A29CB47e57645b86E072",
        "0x244e10aeF0B1E1017Ac6e27cAe485f1F2A4131A1"
      ],
      "transaction": {
        "from": "0x4b992f2fbf714c0fcbb23bac5130ace48cad00cd",
        "to": "0x4e59b44847b379578588920ca78fbf26c0b4956c",
        "value": "0x0",
        "input": "0x0000000000000000000000000000000000000000000000000000000000003cc660c0604052346100ab5761001a6100146101ba565b906101dc565b6100226100b0565b61302a610ab88239608051818181610b1601528181610cd901528181610d5301528181610ddc01528181610e9501528181610f1d01528181610f9501528181611028015281816110d2015281816115290152818161159f01528181611f72015281816120b501526123e5015260a051818181610c3b01528181611d4d015261211e015261302a90f35b6100b6565b60405190565b5f80fd5b601f801991011690565b634e487b7160e01b5f52604160045260245ffd5b906100e2906100ba565b810190811060018060401b038211176100fa57604052565b6100c4565b9061011261010b6100b0565b92836100d8565b565b5f80fd5b60018060a01b031690565b61012c90610118565b90565b61013890610123565b90565b6101448161012f565b0361014b57565b5f80fd5b9050519061015c8261013b565b565b61016790610123565b90565b6101738161015e565b0361017a57565b5f80fd5b9050519061018b8261016a565b565b91906040838203126101b557806101a96101b2925f860161014f565b9360200161017e565b90565b610114565b6101d8613ae2803803806101cd816100ff565b92833981019061018d565b9091565b6101e5906101ea565b60a052565b6080526101f63061022f565b565b90565b61020f61020a61021492610118565b6101f8565b610118565b90565b610220906101fb565b90565b61022c90610217565b90565b6102499061024461023e610340565b91610223565b6106c6565b565b6102566101c06100ff565b90565b5f90565b6020908180808080808080808080808061027561024b565b9e8f61027f610259565b81520161028a610259565b815201610295610259565b8152016102a0610259565b8152016102ab610259565b8152016102b6610259565b8152016102c1610259565b8152016102cc610259565b8152016102d7610259565b8152016102e2610259565b8152016102ed610259565b8152016102f8610259565b815201610303610259565b81520161030e610259565b81525050565b61031c61025d565b90565b61032a6101c06100ff565b90565b151590565b9061033c9061032d565b9052565b610348610314565b505f5f5f5f5f5f6001805f915f935f955f975f995f9b61036661031f565b809e5f82019061037591610332565b6020019061038291610332565b60408d019061039091610332565b60608c019061039e91610332565b60808b01906103ac91610332565b60a08a01906103ba91610332565b60c08901906103c891610332565b60e08801906103d691610332565b6101008701906103e591610332565b6101208601906103f491610332565b61014085019061040391610332565b61016084019061041291610332565b61018083019061042191610332565b6101a082019061043091610332565b90565b61043d905161032d565b90565b90565b61045761045261045c92610440565b6101f8565b610118565b90565b61046a612000610443565b90565b90565b61048461047f6104899261046d565b6101f8565b610118565b90565b610497611000610470565b90565b90565b6104b16104ac6104b69261049a565b6101f8565b610118565b90565b6104c461080061049d565b90565b90565b6104de6104d96104e3926104c7565b6101f8565b610118565b90565b6104f16104006104ca565b90565b90565b61050b610506610510926104f4565b6101f8565b610118565b90565b61051e6102006104f7565b90565b90565b61053861053361053d92610521565b6101f8565b610118565b90565b61054b610100610524565b90565b90565b61056561056061056a9261054e565b6101f8565b610118565b90565b6105776080610551565b90565b90565b61059161058c6105969261057a565b6101f8565b610118565b90565b6105a3604061057d565b90565b90565b6105bd6105b86105c2926105a6565b6101f8565b610118565b90565b6105cf60206105a9565b90565b90565b6105e96105e46105ee926105d2565b6101f8565b610118565b90565b6105fb60106105d5565b90565b90565b61061561061061061a926105fe565b6101f8565b610118565b90565b6106276008610601565b90565b90565b61064161063c6106469261062a565b6101f8565b610118565b90565b610653600461062d565b90565b90565b61066d61066861067292610656565b6101f8565b610118565b90565b61067f6002610659565b90565b90565b61069961069461069e92610682565b6101f8565b610118565b90565b6106ab6001610685565b90565b6106b7906101fb565b90565b6106c3906106ae565b90565b906106d25f8201610433565b6106f56106ef6106ea856106e461045f565b90610a73565b61032d565b9161032d565b14158015610a0d575b80156109d6575b801561099f575b8015610968575b8015610931575b80156108fa575b80156108c3575b801561088b575b8015610853575b801561081b575b80156107e3575b80156107ab575b908115610772575b5061075b5750565b61076c630732d7b560e51b916106ba565b90610aa5565b61078091506101a001610433565b6107a361079d610798846107926106a1565b90610a73565b61032d565b9161032d565b14155f610753565b506107b96101808201610433565b6107dc6107d66107d1856107cb610675565b90610a73565b61032d565b9161032d565b141561074b565b506107f16101608201610433565b61081461080e61080985610803610649565b90610a73565b61032d565b9161032d565b1415610744565b506108296101408201610433565b61084c6108466108418561083b61061d565b90610a73565b61032d565b9161032d565b141561073d565b506108616101208201610433565b61088461087e610879856108736105f1565b90610a73565b61032d565b9161032d565b1415610736565b506108996101008201610433565b6108bc6108b66108b1856108ab6105c5565b90610a73565b61032d565b9161032d565b141561072f565b506108d060e08201610433565b6108f36108ed6108e8856108e2610599565b90610a73565b61032d565b9161032d565b1415610728565b5061090760c08201610433565b61092a61092461091f8561091961056d565b90610a73565b61032d565b9161032d565b1415610721565b5061093e60a08201610433565b61096161095b61095685610950610540565b90610a73565b61032d565b9161032d565b141561071a565b5061097560808201610433565b61099861099261098d85610987610513565b90610a73565b61032d565b9161032d565b1415610713565b506109ac60608201610433565b6109cf6109c96109c4856109be6104e6565b90610a73565b61032d565b9161032d565b141561070c565b506109e360408201610433565b610a06610a006109fb856109f56104b9565b90610a73565b61032d565b9161032d565b1415610705565b50610a1a60208201610433565b610a3d610a37610a3285610a2c61048c565b90610a73565b61032d565b9161032d565b14156106fe565b5f90565b610a51906101fb565b90565b90565b610a6b610a66610a7092610a54565b6101f8565b610118565b90565b610a88610a8d91610a82610a44565b506106ba565b610a48565b16610aa0610a9a5f610a57565b91610118565b141590565b5f5260018060a01b031660045260245ffdfe60806040526004361015610013575b610cc0565b61001d5f3561011c565b806321d0ee7014610117578063259982e514610112578063575e24b41461010d5780636c2bbe7e146101085780636fe7e6eb14610103578063788bb8c0146100fe5780639f063efc146100f9578063af308179146100f4578063b47b2fb1146100ef578063b6a8b0fa146100ea578063c4e833ce146100e5578063da8de7a2146100e0578063dc4c90d3146100db578063dc98354e146100d6578063e1b4af69146100d15763f77c47910361000e57610c8b565b610c18565b610bfd565b610b8e565b610adf565b610a33565b6108d4565b610802565b610723565b61063c565b610607565b610518565b610464565b610385565b61027c565b61025e565b60e01c90565b60405190565b5f80fd5b5f80fd5b5f80fd5b60018060a01b031690565b61014890610134565b90565b6101548161013f565b0361015b57565b5f80fd5b9050359061016c8261014b565b565b5f80fd5b908160a09103126101805790565b61016e565b908160809103126101935790565b61016e565b5f80fd5b5f80fd5b5f80fd5b909182601f830112156101de5781359167ffffffffffffffff83116101d95760200192600183028401116101d457565b6101a0565b61019c565b610198565b9061016082820312610240576101fb815f840161015f565b926102098260208501610172565b926102178360c08301610185565b9261014082013567ffffffffffffffff811161023b5761023792016101a4565b9091565b610130565b61012c565b63ffffffff60e01b1690565b61025a90610245565b9052565b346102775761026e3660046101e3565b93929092610d3a565b610128565b346102955761028c3660046101e3565b93929092610db4565b610128565b908160609103126102a85790565b61016e565b906101408282031261030a576102c5815f840161015f565b926102d38260208501610172565b926102e18360c0830161029a565b9261012082013567ffffffffffffffff81116103055761030192016101a4565b9091565b610130565b61012c565b90565b90565b61032961032461032e9261030f565b610312565b61030f565b90565b61033a90610315565b9052565b62ffffff1690565b61034f9061033e565b9052565b60409061037c610383949695939661037260608401985f850190610251565b6020830190610331565b0190610346565b565b346103bc576103b86103a461039b3660046102ad565b93929092610e5a565b6103af939193610122565b93849384610353565b0390f35b610128565b6103ca8161030f565b036103d157565b5f80fd5b905035906103e2826103c1565b565b916101a08383031261045f576103fc825f850161015f565b9261040a8360208301610172565b926104188160c08401610185565b926104278261014085016103d5565b926104368361016083016103d5565b9261018082013567ffffffffffffffff811161045a5761045692016101a4565b9091565b610130565b61012c565b34610480576104743660046103e4565b95949094939193610efb565b610128565b61048e81610134565b0361049557565b5f80fd5b905035906104a682610485565b565b60020b90565b6104b7816104a8565b036104be57565b5f80fd5b905035906104cf826104ae565b565b61010081830312610513576104e8825f830161015f565b926105106104f98460208501610172565b936105078160c08601610499565b9360e0016104c2565b90565b61012c565b34610531576105283660046104d1565b92919091610f7c565b610128565b90565b61054281610536565b0361054957565b5f80fd5b9050359061055a82610539565b565b9060208282031261057557610572915f0161054d565b90565b61012c565b61058390610536565b90565b906105909061057a565b5f5260205260405f2090565b1c90565b90565b6105b39060086105b8930261059c565b6105a0565b90565b906105c691546105a3565b90565b6105df906105da6002915f92610586565b6105bb565b90565b90565b6105ee906105e2565b9052565b9190610605905f602085019401906105e5565b565b346106375761063361062261061d36600461055c565b6105c9565b61062a610122565b918291826105f2565b0390f35b610128565b346106585761064c3660046103e4565b95949094939193610ffb565b610128565b906106679061057a565b5f5260205260405f2090565b5f1c90565b61068461068991610673565b6105a0565b90565b6106969054610678565b90565b64ffffffffff1690565b6106af6106b491610673565b610699565b90565b6106c190546106a3565b90565b6106ce905f61065d565b906106e660016106df5f850161068c565b93016106b7565b90565b64ffffffffff1690565b6106fc906106e9565b9052565b91602061072192949361071a60408201965f8301906105e5565b01906106f3565b565b346107545761073b61073636600461055c565b6106c4565b90610750610747610122565b92839283610700565b0390f35b610128565b919091610160818403126107c757610773835f830161015f565b926107818160208401610172565b9261078f8260c0850161029a565b9261079e8361012083016103d5565b9261014082013567ffffffffffffffff81116107c2576107be92016101a4565b9091565b610130565b61012c565b600f0b90565b6107db906107cc565b9052565b9160206108009294936107f960408201965f830190610251565b01906107d2565b565b3461083a57610821610815366004610759565b949390939291926110a3565b9061083661082d610122565b928392836107df565b0390f35b610128565b610848816105e2565b0361084f57565b5f80fd5b905035906108608261083f565b565b919091610120818403126108cf5761087c835f830161015f565b9261088a8160208401610172565b926108988260c08501610853565b926108a68360e08301610853565b9261010082013567ffffffffffffffff81116108ca576108c692016101a4565b9091565b610130565b61012c565b346108f0576108e4366004610862565b94939093929192611135565b610128565b5f9103126108ff57565b61012c565b151590565b61091290610904565b9052565b906101a080610a1b9361092f5f8201515f860190610909565b61094160208201516020860190610909565b61095360408201516040860190610909565b61096560608201516060860190610909565b61097760808201516080860190610909565b61098960a082015160a0860190610909565b61099b60c082015160c0860190610909565b6109ad60e082015160e0860190610909565b6109c1610100820151610100860190610909565b6109d5610120820151610120860190610909565b6109e9610140820151610140860190610909565b6109fd610160820151610160860190610909565b610a11610180820151610180860190610909565b0151910190610909565b565b9190610a31905f6101c08501940190610916565b565b34610a6357610a433660046108f5565b610a5f610a4e61128e565b610a56610122565b91829182610a1d565b0390f35b610128565b610a71906106e9565b9052565b610a7e906104a8565b9052565b90606080610ac893610a9a5f8201515f860190610a68565b610aac60208201516020860190610a68565b610abe60408201516040860190610a75565b0151910190610a68565b565b9190610add905f60808501940190610a82565b565b34610b0f57610b0b610afa610af536600461055c565b6114fe565b610b02610122565b91829182610aca565b0390f35b610128565b7f000000000000000000000000000000000000000000000000000000000000000090565b610b4c610b47610b5192610134565b610312565b610134565b90565b610b5d90610b38565b90565b610b6990610b54565b90565b610b7590610b60565b9052565b9190610b8c905f60208501940190610b6c565b565b34610bbe57610b9e3660046108f5565b610bba610ba9610b14565b610bb1610122565b91829182610b79565b0390f35b610128565b909160e082840312610bf857610bf5610bde845f850161015f565b93610bec8160208601610172565b9360c001610499565b90565b61012c565b34610c1357610c0d366004610bc3565b91611586565b610128565b34610c3457610c28366004610862565b94939093929192611602565b610128565b7f000000000000000000000000000000000000000000000000000000000000000090565b610c6690610b54565b90565b610c7290610c5d565b9052565b9190610c89905f60208501940190610c69565b565b34610cbb57610c9b3660046108f5565b610cb7610ca6610c39565b610cae610122565b91829182610c76565b0390f35b610128565b5f80fd5b5f90565b5f0190565b33610d08610d02610cfd7f0000000000000000000000000000000000000000000000000000000000000000610b60565b61013f565b9161013f565b0315610d2a575f63570c108560e11b815280610d2660048201610cc8565b0390fd5b949392919450939091929361160f565b610d42610cc4565b610ccd565b33610d82610d7c610d777f0000000000000000000000000000000000000000000000000000000000000000610b60565b61013f565b9161013f565b0315610da4575f63570c108560e11b815280610da060048201610cc8565b0390fd5b9493929194509390919293611634565b610dbc610cc4565b610d47565b5f90565b5f90565b9695949392919033610e0b610e05610e007f0000000000000000000000000000000000000000000000000000000000000000610b60565b61013f565b9161013f565b03610e1e57610e1997610e3a565b909192565b5f63570c108560e11b815280610e3660048201610cc8565b0390fd5b90610e5397959392919694965050509390919293611d10565b9192909190565b90610e8094939291610e6a610cc4565b610e72610dc1565b610e7a610dc5565b91610dc9565b909192565b5f90565b33610ec4610ebe610eb97f0000000000000000000000000000000000000000000000000000000000000000610b60565b61013f565b9161013f565b0315610ee6575f63570c108560e11b815280610ee260048201610cc8565b0390fd5b9796959493929750509590919293949561230f565b610f03610cc4565b610f0b610e85565b90610e89565b33610f4c610f46610f417f0000000000000000000000000000000000000000000000000000000000000000610b60565b61013f565b9161013f565b0315610f6e575f63570c108560e11b815280610f6a60048201610cc8565b0390fd5b93929193509290919261233d565b610f84610cc4565b610f11565b33610fc4610fbe610fb97f0000000000000000000000000000000000000000000000000000000000000000610b60565b61013f565b9161013f565b0315610fe6575f63570c108560e11b815280610fe260048201610cc8565b0390fd5b97969594939297505095909192939495612362565b611003610cc4565b61100b610e85565b90610f89565b5f90565b969594939291903361105761105161104c7f0000000000000000000000000000000000000000000000000000000000000000610b60565b61013f565b9161013f565b036110695761106597611085565b9091565b5f63570c108560e11b81528061108160048201610cc8565b0390fd5b9061109d9795939694929150509490919293946123ac565b91909190565b906110c295949392916110b4610cc4565b6110bc611011565b90611015565b9091565b336111016110fb6110f67f0000000000000000000000000000000000000000000000000000000000000000610b60565b61013f565b9161013f565b0315611123575f63570c108560e11b81528061111f60048201610cc8565b0390fd5b95949392919550949091929394612441565b61113d610cc4565b6110c6565b601f801991011690565b634e487b7160e01b5f52604160045260245ffd5b9061116a90611142565b810190811067ffffffffffffffff82111761118457604052565b61114c565b9061119c611195610122565b9283611160565b565b6111a96101c0611189565b90565b5f90565b602090818080808080808080808080806111c861119e565b9e8f6111d26111ac565b8152016111dd6111ac565b8152016111e86111ac565b8152016111f36111ac565b8152016111fe6111ac565b8152016112096111ac565b8152016112146111ac565b81520161121f6111ac565b81520161122a6111ac565b8152016112356111ac565b8152016112406111ac565b81520161124b6111ac565b8152016112566111ac565b8152016112616111ac565b81525050565b61126f6111b0565b90565b61127d6101c0611189565b90565b9061128a90610904565b9052565b611296611267565b505f5f5f5f5f5f6001805f915f935f955f975f995f9b6112b4611272565b809e5f8201906112c391611280565b602001906112d091611280565b60408d01906112de91611280565b60608c01906112ec91611280565b60808b01906112fa91611280565b60a08a019061130891611280565b60c089019061131691611280565b60e088019061132491611280565b61010087019061133391611280565b61012086019061134291611280565b61014085019061135191611280565b61016084019061136091611280565b61018083019061136f91611280565b6101a082019061137e91611280565b90565b61138b6080611189565b90565b5f90565b5f90565b61139e611381565b906020808080856113ad61138e565b8152016113b861138e565b8152016113c3611392565b8152016113ce61138e565b81525050565b6113dc611396565b90565b906113e99061057a565b5f5260205260405f2090565b906113ff906106e9565b9052565b60281c90565b61141561141a91611403565b610699565b90565b6114279054611409565b90565b60501c90565b60020b90565b6114426114479161142a565b611430565b90565b6114549054611436565b90565b90611461906104a8565b9052565b60681c90565b61147761147c91611465565b610699565b90565b611489905461146b565b90565b906114f06114e75f61149c611381565b946114b36114ab8383016106b7565b8388016113f5565b6114ca6114c183830161141d565b602088016113f5565b6114e16114d883830161144a565b60408801611457565b0161147f565b606084016113f5565b565b6114fb9061148c565b90565b61151561151a9161150d6113d4565b5060016113df565b6114f2565b90565b3361155861155261154d7f0000000000000000000000000000000000000000000000000000000000000000610b60565b61013f565b9161013f565b031561157a575f63570c108560e11b81528061157660048201610cc8565b0390fd5b92919250919091612466565b61158e610cc4565b61151d565b336115ce6115c86115c37f0000000000000000000000000000000000000000000000000000000000000000610b60565b61013f565b9161013f565b03156115f0575f63570c108560e11b8152806115ec60048201610cc8565b0390fd5b9594939291955094909192939461248b565b61160a610cc4565b611593565b611617610cc4565b505f630a85dc2960e01b81528061163060048201610cc8565b0390fd5b61163c610cc4565b505f630a85dc2960e01b81528061165560048201610cc8565b0390fd5b5f80fd5b6116668161013f565b0361166d57565b5f80fd5b9050359061167e8261165d565b565b6116898161033e565b0361169057565b5f80fd5b905035906116a182611680565b565b6116ac9061013f565b90565b6116b8816116a3565b036116bf57565b5f80fd5b905035906116d0826116af565b565b919060a0838203126117425761173b906116ec60a0611189565b936116f9825f8301611671565b5f86015261170a8260208301611671565b602086015261171c8260408301611694565b604086015261172e82606083016104c2565b60608601526080016116c3565b6080830152565b611659565b6117529036906116d2565b90565b60e01b90565b61176481610904565b0361176b57565b5f80fd5b9050519061177c8261175b565b565b9050519061178b8261014b565b565b61ffff1690565b61179d8161178d565b036117a457565b5f80fd5b905051906117b582611794565b565b600211156117c157565b5f80fd5b905051906117d2826117b7565b565b905051906117e18261083f565b565b6117ec816106e9565b036117f357565b5f80fd5b90505190611804826117e3565b565b9190610180838203126118fe576118f690611822610180611189565b9361182f825f830161176f565b5f860152611840826020830161177e565b6020860152611852826040830161176f565b604086015261186482606083016117a8565b606086015261187682608083016117a8565b60808601526118888260a083016117c5565b60a086015261189a8260c083016117d4565b60c08601526118ac8260e083016117d4565b60e08601526118bf8261010083016117a8565b6101008601526118d38261012083016117a8565b6101208601526118e78261014083016117f7565b610140860152610160016117f7565b610160830152565b611659565b906101808282031261191d5761191a915f01611806565b90565b61012c565b61192b9061057a565b9052565b9190611942905f60208501940190611922565b565b61194c610122565b3d5f823e3d90fd5b61195e9051610904565b90565b61196b905161013f565b90565b61197790610b38565b90565b6119839061196e565b90565b61198f90610b54565b90565b906020828203126119ab576119a8915f016117d4565b90565b61012c565b90565b6119bd905161178d565b90565b6119d46119cf6119d99261178d565b610312565b6105e2565b90565b6119e690516105e2565b90565b6119f390516106e9565b90565b611a0060c0611189565b90565b90611a0d906105e2565b9052565b90611a1b9061178d565b9052565b90565b90565b611a39611a34611a3e92611a22565b610312565b6105e2565b90565b611a4a90610b38565b90565b611a5690611a41565b90565b611a6290610b54565b90565b611a6e9061013f565b9052565b9190611a85905f60208501940190611a65565b565b9190604083820312611aaf5780611aa3611aac925f86016117d4565b936020016117d4565b90565b61012c565b611ae9611af094611adf606094989795611ad5608086019a5f870190611922565b60208501906105e5565b60408301906105e5565b01906105e5565b565b611b06611b01611b0b926105e2565b610312565b6106e9565b90565b90959492611b5994611b48611b5292611b3e608096611b3460a088019c5f8901906105e5565b60208701906105e5565b60408501906105e5565b60608301906105e5565b01906106f3565b565b611b648161030f565b03611b6b57565b5f80fd5b35611b7981611b5b565b90565b611b90611b8b611b9592611a22565b610312565b61030f565b90565b611bac611ba7611bb19261030f565b610312565b6105e2565b90565b634e487b7160e01b5f52601160045260245ffd5b611bd19061030f565b600160ff1b8114611be1575f0390565b611bb4565b611bef9061148c565b90565b90565b611c09611c04611c0e92611bf2565b610312565b6105e2565b90565b611c20611c26919392936105e2565b926105e2565b8201809211611c3157565b611bb4565b5f1b90565b90611c475f1991611c36565b9181191691161790565b611c65611c60611c6a926105e2565b610312565b6105e2565b90565b90565b90611c85611c80611c8c92611c51565b611c6d565b8254611c3b565b9055565b611c9990610b54565b90565b611ca590610904565b9052565b611cb2906104a8565b9052565b604090611cdf611ce69496959396611cd560608401985f8501906105e5565b6020830190611c9c565b0190611ca9565b565b611cf15f611b7c565b90565b611d08611d03611d0d92611a22565b610312565b61033e565b90565b9192509250611d1d610cc4565b50611d26610dc1565b50611d2f610dc5565b50611d41611d3c84611747565b6124b4565b92611d9b610180611d717f0000000000000000000000000000000000000000000000000000000000000000610c5d565b63037aadbe90611d908892611d84610122565b95869485938493611755565b83526004830161192f565b03915afa90811561230a575f916122db575b5090611dc3611dbd5f8401611954565b15610904565b6122bf57611dd19082612503565b611e076020611df1611dec611de7838601611961565b61197a565b611986565b632986c0e590611dff610122565b938492611755565b82528180611e1760048201610cc8565b03915afa9081156122ba575f9161228c575b5092611e5c611e41611e3c5f889061065d565b6119b0565b85611e56611e51606087016119b3565b6119c0565b916126cd565b50949094611e6c60c085016119dc565b611eff611e7b60e087016119dc565b611ef687611eed611e8f61010083016119b3565b611ee4611e9f61012085016119b3565b91611edb611ebd610160611eb661014089016119e9565b97016119e9565b97611ed2611ec96119f6565b9b5f8d01611a03565b60208b01611a03565b60408901611a11565b60608701611a11565b608085016113f5565b60a083016113f5565b93611f14611f0f60018a906113df565b611a1f565b9680612272575b612083575b505050611fb881611f366020611fc49401611b6f565b611f48611f425f611b7c565b9161030f565b125f1461206a57611f66611f616020611f6b9301611b6f565b611bc8565b611b98565b5b94611f987f00000000000000000000000000000000000000000000000000000000000000008890612a99565b5050905093611fa642611af2565b8791611fb28794611be6565b90612c8b565b9485612034575b61057a565b9192939093612011611fff611ff97f64dff420e8987b3c65b251178fa290e0777b725f3159c3eda854cf311a21977b9561057a565b95611c90565b95612008610122565b93849384611cb6565b0390a36315d7892d60e21b612024611ce8565b916120315f929392611cf4565b90565b6120656120416001611bf5565b61205f61205060028590610586565b9161205a8361068c565b611c11565b90611c70565b611fbf565b612079602061207e9201611b6f565b611b98565b611f6c565b60206120a76120a261209d836120f9959896979801611961565b611a4d565b611a59565b6370a08231906120ee6120d97f0000000000000000000000000000000000000000000000000000000000000000610b60565b926120e2610122565b95869485938493611755565b835260048301611a72565b03915afa801561226d57612116915f9161223f575b508490612917565b9260406121427f0000000000000000000000000000000000000000000000000000000000000000610c5d565b639a08789e906121685f8c93612173899a8861215c610122565b9c8d9889978896611755565b865260048601611ab4565b03925af192831561223a57611fc494611fb8945f80929091612209575b5090926121a78a896121a142611af2565b916129de565b6121ff6121b38c61057a565b939192946121c25f8d016106b7565b906121ed7fafd1547759bf51bdf47f9561ae9225a9dca96b036f9d8e0877ac67ff41a820159661057a565b966121f6610122565b95869586611b0e565b0390a2915f611f20565b905061222c915060403d8111612233575b6122248183611160565b810190611a87565b905f612190565b503d61221a565b611944565b612260915060203d8111612266575b6122588183611160565b810190611992565b5f61210e565b503d61224e565b611944565b50816122866122805f611a25565b916105e2565b11611f1b565b6122ad915060203d81116122b3575b6122a58183611160565b810190611992565b5f611e29565b503d61229b565b611944565b5f636b271baf60e11b8152806122d760048201610cc8565b0390fd5b6122fd91506101803d8111612303575b6122f58183611160565b810190611903565b5f611dad565b503d6122eb565b611944565b612317610cc4565b50612320610e85565b505f630a85dc2960e01b81528061233960048201610cc8565b0390fd5b612345610cc4565b505f630a85dc2960e01b81528061235e60048201610cc8565b0390fd5b61236a610cc4565b50612373610e85565b505f630a85dc2960e01b81528061238c60048201610cc8565b0390fd5b6123a461239f6123a992611a22565b610312565b6107cc565b90565b50905061242c93506123da92506123d591506123c6610cc4565b506123cf611011565b50611747565b6124b4565b61241c61241761240b7f00000000000000000000000000000000000000000000000000000000000000008490612a99565b505090509260016113df565b611a1f565b9061242642611af2565b91612e89565b63b47b2fb160e01b9061243e5f612390565b90565b612449610cc4565b505f630a85dc2960e01b81528061246260048201610cc8565b0390fd5b61246e610cc4565b505f630a85dc2960e01b81528061248760048201610cc8565b0390fd5b612493610cc4565b505f630a85dc2960e01b8152806124ac60048201610cc8565b0390fd5b5f90565b60a0906124bf6124b0565b502090565b356124ce8161165d565b90565b6040906124fa61250194969593966124f060608401985f850190611a65565b6020830190611a65565b0190611a65565b565b9061252b612526602061251f61251a5f86016124c4565b611c90565b93016124c4565b611c90565b91612544604061253d60208401611961565b9201611954565b5f14612589578061255d6125578461013f565b9161013f565b03612568575050505b565b6125859091925f9384936305bf665f60e21b8552600485016124d1565b0390fd5b8061259c6125968561013f565b9161013f565b036125a957505050612566565b6125c69091925f9384936305bf665f60e21b8552600485016124d1565b0390fd5b5f90565b5f90565b906125e264ffffffffff91611c36565b9181191691161790565b6126006125fb612605926106e9565b610312565b6106e9565b90565b90565b9061262061261b612627926125ec565b612608565b82546125d2565b9055565b91602061264c92949361264560408201965f8301906105e5565b01906105e5565b565b9061265991036105e2565b90565b90565b61267361266e6126789261265c565b610312565b6105e2565b90565b61268661271061265f565b90565b9061269491026105e2565b90565b634e487b7160e01b5f52601260045260245ffd5b6126b76126bd916105e2565b916105e2565b9081156126c8570490565b612697565b9190916126d86125ca565b506126e16125ce565b506126ea6125ce565b50826126fe6126f85f611a25565b916105e2565b146128715761270e5f820161068c565b928361272261271c5f611a25565b916105e2565b14612831578061273a612734866105e2565b916105e2565b10612812578061275261274c866105e2565b916105e2565b146127fd5761277d61277661276883879061264e565b61277061267b565b90612689565b85906126ab565b928061279161278b5f611a25565b916105e2565b11806127e3575b6127c45750906127ad6127bf925f8301611c70565b60016127b842611af2565b910161260b565b600192565b836127df5f928392637840b40760e11b84526004840161262b565b0390fd5b50836127f76127f1836105e2565b916105e2565b11612798565b5050505f909161280f5f929392611a25565b90565b8361282d5f92839263095ad6fb60e11b84526004840161262b565b0390fd5b61285693506128449192505f8301611c70565b600161284f42611af2565b910161260b565b60015f9161286e6128685f9394611a25565b92611a25565b90565b5f6363df817160e01b81528061288960048201610cc8565b0390fd5b90565b6128a461289f6128a99261288d565b610312565b6105e2565b90565b6128bd670de0b6b3a7640000612890565b90565b6128cf6128d5919392936105e2565b926105e2565b916128e18382026105e2565b9281840414901517156128f057565b611bb4565b612901612907916105e2565b916105e2565b908115612912570490565b612697565b906129206125ce565b508061293461292e5f611a25565b916105e2565b146129565761294e612953926129486128ac565b906128c0565b6128f5565b90565b5f6363df817160e01b81528061296e60048201610cc8565b0390fd5b61297e612984916106e9565b916106e9565b019064ffffffffff821161299457565b611bb4565b60281b90565b906129b469ffffffffff000000000091612999565b9181191691161790565b906129d36129ce6129da926125ec565b612608565b825461299f565b9055565b90612a255f91612a08612a00612a2c966129fa608085016119e9565b90612972565b84860161260b565b612a1f60a0612a188587016106b7565b92016119e9565b90612972565b91016129be565b565b5f90565b5f90565b612a3f81610536565b03612a4657565b5f80fd5b90505190612a5782612a36565b565b90602082820312612a7257612a6f915f01612a4a565b90565b61012c565b612a8090610536565b9052565b9190612a97905f60208501940190612a77565b565b602090612ad5612acf612afc94612aae612a2e565b50612ab7612a32565b50612ac0610dc5565b50612ac9610dc5565b50612f38565b91610b60565b612af1631e2eaeaf612ae5610122565b95869485938493611755565b835260048301612a84565b03915afa908115612b62575f91612b34575b509060018060a01b038216918060a01c60020b9162ffffff808360b81c169260d01c1690565b612b55915060203d8111612b5b575b612b4d8183611160565b810190612a59565b5f612b0e565b503d612b43565b611944565b612b7b612b76612b8092611a22565b610312565b6106e9565b90565b612b97612b92612b9c92611a22565b610312565b61178d565b90565b612ba990516104a8565b90565b612bb8612bbe916104a8565b916104a8565b900390627fffff8213627fffff19831217612bd557565b611bb4565b612bee612be9612bf392611a22565b610312565b6104a8565b90565b612bff906104a8565b627fffff198114612c0f575f0390565b611bb4565b612c28612c23612c2d926104a8565b610312565b61033e565b90565b612c44612c3f612c499261178d565b610312565b61033e565b90565b612c559061178d565b9052565b604090612c82612c899496959396612c7860608401985f850190611ca9565b6020830190611ca9565b0190612c4c565b565b612ca5909491939294612c9c6125ca565b50848691612f96565b9281612cb9612cb35f611a25565b916105e2565b1180612dcc575b612dae575050612cd2606084016119e9565b612ce4612cde5f612b67565b916106e9565b141580612d94575b612d00575b505090612cfd91612ff2565b90565b612d3a612d1982612d1360408701612b9f565b90612bac565b80612d2c612d265f612bda565b916104a8565b12155f14612d86575b612c14565b612d54612d4e612d4985612c30565b61033e565b9161033e565b1115612cf157612d82612d6960408501612b9f565b91925f938493633049293360e21b855260048501612c59565b0390fd5b612d8f90612bf6565b612d35565b5081612da8612da25f612b83565b9161178d565b11612cec565b612dc85f928392632849f04f60e21b84526004840161262b565b0390fd5b5080612de0612dda846105e2565b916105e2565b11612cc0565b60501b90565b90612dfd62ffffff60501b91612de6565b9181191691161790565b612e1b612e16612e20926104a8565b610312565b6104a8565b90565b90565b90612e3b612e36612e4292612e07565b612e23565b8254612dec565b9055565b60681b90565b90612e5f64ffffffffff60681b91612e46565b9181191691161790565b90612e7e612e79612e85926125ec565b612608565b8254612e4c565b9055565b90612ea292612e9b5f92838501612e26565b9101612e69565b565b5f90565b90565b612ebf612eba612ec492612ea8565b610312565b6105e2565b90565b612edb612ed6612ee0926105e2565b611c36565b610536565b90565b612ef5612ef06006612eab565b612ec7565b90565b90565b612f07612f0c91610536565b612ef8565b9052565b602081612f22612f2a93839695612efb565b018092612efb565b0190565b60200190565b5190565b612f4a90612f44612ea4565b5061057a565b612f7c612f55612ee3565b91612f6d612f61610122565b93849260208401612f10565b60208201810382520382611160565b612f8e612f8882612f34565b91612f2e565b2090565b5f90565b9291612fb391612fa46125ce565b50612fad612f92565b50612ff2565b5f14612fd557612fd16060612fca602085016119dc565b93016119b3565b905b565b612fec6040612fe55f85016119dc565b93016119b3565b90612fd3565b9061301361300e5f613019936130066125ca565b5094016119e9565b6106e9565b916106e9565b109056fea164736f6c634300081e000a0000000000000000000000001f601976fb1905ebc488a29cb47e57645b86e072000000000000000000000000244e10aef0b1e1017ac6e27cae485f1f2a4131a1",
        "nonce": "0x5ba",
        "chainId": "0x515"
      },
      "additionalContracts": [],
      "isFixedGasLimit": false
    },
    {
      "hash": null,
      "transactionType": "CALL",
      "contractName": "YieldDistributionController",
      "contractAddress": "0x244e10aef0b1e1017ac6e27cae485f1f2a4131a1",
      "function": "setHook(address)",
      "arguments": [
        "0xAaABB07Ec60c3A52970Bd43bf31AD2fCbE2AC0C0"
      ],
      "transaction": {
        "from": "0x4b992f2fbf714c0fcbb23bac5130ace48cad00cd",
        "to": "0x244e10aef0b1e1017ac6e27cae485f1f2a4131a1",
        "value": "0x0",
        "input": "0x3dfd3873000000000000000000000000aaabb07ec60c3a52970bd43bf31ad2fcbe2ac0c0",
        "nonce": "0x5bb",
        "chainId": "0x515"
      },
      "additionalContracts": [],
      "isFixedGasLimit": false
    },
    {
      "hash": null,
      "transactionType": "CALL",
      "contractName": "YieldDistributionController",
      "contractAddress": "0x244e10aef0b1e1017ac6e27cae485f1f2a4131a1",
      "function": "setPoolConfig(bytes32,(bool,address,bool,uint16,uint16,uint8,uint256,uint256,uint16,uint16,uint40,uint40))",
      "arguments": [
        "0x14b10028069278639cdcf9f7ed3443bb50594a9370c8c5e6f9ca9d46f614ea7f",
        "(true, 0xb095Df6C168C14F970b0d098754D84c31B7E33d9, false, 600, 2000, 1, 5000000000000000000, 500000000000000000, 150, 35, 5, 2)"
      ],
      "transaction": {
        "from": "0x4b992f2fbf714c0fcbb23bac5130ace48cad00cd",
        "to": "0x244e10aef0b1e1017ac6e27cae485f1f2a4131a1",
        "value": "0x0",
        "input": "0xd890c3e314b10028069278639cdcf9f7ed3443bb50594a9370c8c5e6f9ca9d46f614ea7f0000000000000000000000000000000000000000000000000000000000000001000000000000000000000000b095df6c168c14f970b0d098754d84c31b7e33d90000000000000000000000000000000000000000000000000000000000000000000000000000000000000000000000000000000000000000000000000000025800000000000000000000000000000000000000000000000000000000000007d000000000000000000000000000000000000000000000000000000000000000010000000000000000000000000000000000000000000000004563918244f4000000000000000000000000000000000000000000000000000006f05b59d3b200000000000000000000000000000000000000000000000000000000000000000096000000000000000000000000000000000000000000000000000000000000002300000000000000000000000000000000000000000000000000000000000000050000000000000000000000000000000000000000000000000000000000000002",
        "nonce": "0x5bc",
        "chainId": "0x515"
      },
      "additionalContracts": [],
      "isFixedGasLimit": false
    },
    {
      "hash": null,
      "transactionType": "CALL",
      "contractName": "MockRebasingLST",
      "contractAddress": "0xb095df6c168c14f970b0d098754d84c31b7e33d9",
      "function": "mint(address,uint256)",
      "arguments": [
        "0x1f601976fB1905eBC488A29CB47e57645b86E072",
        "2000000000000000000000"
      ],
      "transaction": {
        "from": "0x4b992f2fbf714c0fcbb23bac5130ace48cad00cd",
        "to": "0xb095df6c168c14f970b0d098754d84c31b7e33d9",
        "value": "0x0",
        "input": "0x40c10f190000000000000000000000001f601976fb1905ebc488a29cb47e57645b86e07200000000000000000000000000000000000000000000006c6b935b8bbd400000",
        "nonce": "0x5bd",
        "chainId": "0x515"
      },
      "additionalContracts": [],
      "isFixedGasLimit": false
    },
    {
      "hash": null,
      "transactionType": "CALL",
      "contractName": "MockPoolManagerHarness",
      "contractAddress": "0x1f601976fb1905ebc488a29cb47e57645b86e072",
      "function": "setSlot0(bytes32,uint160,int24,uint24,uint24)",
      "arguments": [
        "0x14b10028069278639cdcf9f7ed3443bb50594a9370c8c5e6f9ca9d46f614ea7f",
        "79228162514264337593543950336",
        "0",
        "0",
        "3000"
      ],
      "transaction": {
        "from": "0x4b992f2fbf714c0fcbb23bac5130ace48cad00cd",
        "to": "0x1f601976fb1905ebc488a29cb47e57645b86e072",
        "value": "0x0",
        "input": "0x41e8918714b10028069278639cdcf9f7ed3443bb50594a9370c8c5e6f9ca9d46f614ea7f0000000000000000000000000000000000000001000000000000000000000000000000000000000000000000000000000000000000000000000000000000000000000000000000000000000000000000000000000000000000000000000000000000000000000000000000000000000000000000000000000000000000000bb8",
        "nonce": "0x5be",
        "chainId": "0x515"
      },
      "additionalContracts": [],
      "isFixedGasLimit": false
    },
    {
      "hash": null,
      "transactionType": "CALL",
      "contractName": "MockPoolManagerHarness",
      "contractAddress": "0x1f601976fb1905ebc488a29cb47e57645b86e072",
      "function": "callBeforeSwap(address,address,(address,address,uint24,int24,address),(bool,int256,uint160))",
      "arguments": [
        "0xAaABB07Ec60c3A52970Bd43bf31AD2fCbE2AC0C0",
        "0x4b992F2Fbf714C0fCBb23baC5130Ace48CaD00cd",
        "(0x7bE88Fc99b1d19b4A41118AF0c4819A99204035d, 0xb095Df6C168C14F970b0d098754D84c31B7E33d9, 3000, 60, 0xAaABB07Ec60c3A52970Bd43bf31AD2fCbE2AC0C0)",
        "(false, -10000000000000000, 0)"
      ],
      "transaction": {
        "from": "0x4b992f2fbf714c0fcbb23bac5130ace48cad00cd",
        "to": "0x1f601976fb1905ebc488a29cb47e57645b86e072",
        "value": "0x0",
        "input": "0x83cbd58b000000000000000000000000aaabb07ec60c3a52970bd43bf31ad2fcbe2ac0c00000000000000000000000004b992f2fbf714c0fcbb23bac5130ace48cad00cd0000000000000000000000007be88fc99b1d19b4a41118af0c4819a99204035d000000000000000000000000b095df6c168c14f970b0d098754d84c31b7e33d90000000000000000000000000000000000000000000000000000000000000bb8000000000000000000000000000000000000000000000000000000000000003c000000000000000000000000aaabb07ec60c3a52970bd43bf31ad2fcbe2ac0c00000000000000000000000000000000000000000000000000000000000000000ffffffffffffffffffffffffffffffffffffffffffffffffffdc790d903f00000000000000000000000000000000000000000000000000000000000000000000",
        "nonce": "0x5bf",
        "chainId": "0x515"
      },
      "additionalContracts": [],
      "isFixedGasLimit": false
    },
    {
      "hash": null,
      "transactionType": "CALL",
      "contractName": "MockPoolManagerHarness",
      "contractAddress": "0x1f601976fb1905ebc488a29cb47e57645b86e072",
      "function": "setSlot0(bytes32,uint160,int24,uint24,uint24)",
      "arguments": [
        "0x14b10028069278639cdcf9f7ed3443bb50594a9370c8c5e6f9ca9d46f614ea7f",
        "79228162514264337593543950336",
        "0",
        "0",
        "3000"
      ],
      "transaction": {
        "from": "0x4b992f2fbf714c0fcbb23bac5130ace48cad00cd",
        "to": "0x1f601976fb1905ebc488a29cb47e57645b86e072",
        "value": "0x0",
        "input": "0x41e8918714b10028069278639cdcf9f7ed3443bb50594a9370c8c5e6f9ca9d46f614ea7f0000000000000000000000000000000000000001000000000000000000000000000000000000000000000000000000000000000000000000000000000000000000000000000000000000000000000000000000000000000000000000000000000000000000000000000000000000000000000000000000000000000000000bb8",
        "nonce": "0x5c0",
        "chainId": "0x515"
      },
      "additionalContracts": [],
      "isFixedGasLimit": false
    },
    {
      "hash": null,
      "transactionType": "CALL",
      "contractName": "MockPoolManagerHarness",
      "contractAddress": "0x1f601976fb1905ebc488a29cb47e57645b86e072",
      "function": "callAfterSwap(address,address,(address,address,uint24,int24,address),(bool,int256,uint160))",
      "arguments": [
        "0xAaABB07Ec60c3A52970Bd43bf31AD2fCbE2AC0C0",
        "0x4b992F2Fbf714C0fCBb23baC5130Ace48CaD00cd",
        "(0x7bE88Fc99b1d19b4A41118AF0c4819A99204035d, 0xb095Df6C168C14F970b0d098754D84c31B7E33d9, 3000, 60, 0xAaABB07Ec60c3A52970Bd43bf31AD2fCbE2AC0C0)",
        "(false, -50000000000000000, 0)"
      ],
      "transaction": {
        "from": "0x4b992f2fbf714c0fcbb23bac5130ace48cad00cd",
        "to": "0x1f601976fb1905ebc488a29cb47e57645b86e072",
        "value": "0x0",
        "input": "0xd52fd693000000000000000000000000aaabb07ec60c3a52970bd43bf31ad2fcbe2ac0c00000000000000000000000004b992f2fbf714c0fcbb23bac5130ace48cad00cd0000000000000000000000007be88fc99b1d19b4a41118af0c4819a99204035d000000000000000000000000b095df6c168c14f970b0d098754d84c31b7e33d90000000000000000000000000000000000000000000000000000000000000bb8000000000000000000000000000000000000000000000000000000000000003c000000000000000000000000aaabb07ec60c3a52970bd43bf31ad2fcbe2ac0c00000000000000000000000000000000000000000000000000000000000000000ffffffffffffffffffffffffffffffffffffffffffffffffff4e5d43d13b00000000000000000000000000000000000000000000000000000000000000000000",
        "nonce": "0x5c1",
        "chainId": "0x515"
      },
      "additionalContracts": [],
      "isFixedGasLimit": false
    },
    {
      "hash": null,
      "transactionType": "CALL",
      "contractName": "MockPoolManagerHarness",
      "contractAddress": "0x1f601976fb1905ebc488a29cb47e57645b86e072",
      "function": "setSlot0(bytes32,uint160,int24,uint24,uint24)",
      "arguments": [
        "0x14b10028069278639cdcf9f7ed3443bb50594a9370c8c5e6f9ca9d46f614ea7f",
        "79228162514264337593543950336",
        "10",
        "0",
        "3000"
      ],
      "transaction": {
        "from": "0x4b992f2fbf714c0fcbb23bac5130ace48cad00cd",
        "to": "0x1f601976fb1905ebc488a29cb47e57645b86e072",
        "value": "0x0",
        "input": "0x41e8918714b10028069278639cdcf9f7ed3443bb50594a9370c8c5e6f9ca9d46f614ea7f0000000000000000000000000000000000000001000000000000000000000000000000000000000000000000000000000000000000000000000000000000000a00000000000000000000000000000000000000000000000000000000000000000000000000000000000000000000000000000000000000000000000000000bb8",
        "nonce": "0x5c2",
        "chainId": "0x515"
      },
      "additionalContracts": [],
      "isFixedGasLimit": false
    },
    {
      "hash": null,
      "transactionType": "CALL",
      "contractName": "MockPoolManagerHarness",
      "contractAddress": "0x1f601976fb1905ebc488a29cb47e57645b86e072",
      "function": "callBeforeSwap(address,address,(address,address,uint24,int24,address),(bool,int256,uint160))",
      "arguments": [
        "0xAaABB07Ec60c3A52970Bd43bf31AD2fCbE2AC0C0",
        "0x4b992F2Fbf714C0fCBb23baC5130Ace48CaD00cd",
        "(0x7bE88Fc99b1d19b4A41118AF0c4819A99204035d, 0xb095Df6C168C14F970b0d098754D84c31B7E33d9, 3000, 60, 0xAaABB07Ec60c3A52970Bd43bf31AD2fCbE2AC0C0)",
        "(false, -200000000000000000, 0)"
      ],
      "transaction": {
        "from": "0x4b992f2fbf714c0fcbb23bac5130ace48cad00cd",
        "to": "0x1f601976fb1905ebc488a29cb47e57645b86e072",
        "value": "0x0",
        "input": "0x83cbd58b000000000000000000000000aaabb07ec60c3a52970bd43bf31ad2fcbe2ac0c00000000000000000000000004b992f2fbf714c0fcbb23bac5130ace48cad00cd0000000000000000000000007be88fc99b1d19b4a41118af0c4819a99204035d000000000000000000000000b095df6c168c14f970b0d098754d84c31b7e33d90000000000000000000000000000000000000000000000000000000000000bb8000000000000000000000000000000000000000000000000000000000000003c000000000000000000000000aaabb07ec60c3a52970bd43bf31ad2fcbe2ac0c00000000000000000000000000000000000000000000000000000000000000000fffffffffffffffffffffffffffffffffffffffffffffffffd39750f44ec00000000000000000000000000000000000000000000000000000000000000000000",
        "nonce": "0x5c3",
        "chainId": "0x515"
      },
      "additionalContracts": [],
      "isFixedGasLimit": false
    },
    {
      "hash": null,
      "transactionType": "CALL",
      "contractName": "MockPoolManagerHarness",
      "contractAddress": "0x1f601976fb1905ebc488a29cb47e57645b86e072",
      "function": "setSlot0(bytes32,uint160,int24,uint24,uint24)",
      "arguments": [
        "0x14b10028069278639cdcf9f7ed3443bb50594a9370c8c5e6f9ca9d46f614ea7f",
        "79228162514264337593543950336",
        "10",
        "0",
        "3000"
      ],
      "transaction": {
        "from": "0x4b992f2fbf714c0fcbb23bac5130ace48cad00cd",
        "to": "0x1f601976fb1905ebc488a29cb47e57645b86e072",
        "value": "0x0",
        "input": "0x41e8918714b10028069278639cdcf9f7ed3443bb50594a9370c8c5e6f9ca9d46f614ea7f0000000000000000000000000000000000000001000000000000000000000000000000000000000000000000000000000000000000000000000000000000000a00000000000000000000000000000000000000000000000000000000000000000000000000000000000000000000000000000000000000000000000000000bb8",
        "nonce": "0x5c4",
        "chainId": "0x515"
      },
      "additionalContracts": [],
      "isFixedGasLimit": false
    },
    {
      "hash": null,
      "transactionType": "CALL",
      "contractName": "MockPoolManagerHarness",
      "contractAddress": "0x1f601976fb1905ebc488a29cb47e57645b86e072",
      "function": "callAfterSwap(address,address,(address,address,uint24,int24,address),(bool,int256,uint160))",
      "arguments": [
        "0xAaABB07Ec60c3A52970Bd43bf31AD2fCbE2AC0C0",
        "0x4b992F2Fbf714C0fCBb23baC5130Ace48CaD00cd",
        "(0x7bE88Fc99b1d19b4A41118AF0c4819A99204035d, 0xb095Df6C168C14F970b0d098754D84c31B7E33d9, 3000, 60, 0xAaABB07Ec60c3A52970Bd43bf31AD2fCbE2AC0C0)",
        "(false, -50000000000000000, 0)"
      ],
      "transaction": {
        "from": "0x4b992f2fbf714c0fcbb23bac5130ace48cad00cd",
        "to": "0x1f601976fb1905ebc488a29cb47e57645b86e072",
        "value": "0x0",
        "input": "0xd52fd693000000000000000000000000aaabb07ec60c3a52970bd43bf31ad2fcbe2ac0c00000000000000000000000004b992f2fbf714c0fcbb23bac5130ace48cad00cd0000000000000000000000007be88fc99b1d19b4a41118af0c4819a99204035d000000000000000000000000b095df6c168c14f970b0d098754d84c31b7e33d90000000000000000000000000000000000000000000000000000000000000bb8000000000000000000000000000000000000000000000000000000000000003c000000000000000000000000aaabb07ec60c3a52970bd43bf31ad2fcbe2ac0c00000000000000000000000000000000000000000000000000000000000000000ffffffffffffffffffffffffffffffffffffffffffffffffff4e5d43d13b00000000000000000000000000000000000000000000000000000000000000000000",
        "nonce": "0x5c5",
        "chainId": "0x515"
      },
      "additionalContracts": [],
      "isFixedGasLimit": false
    },
    {
      "hash": null,
      "transactionType": "CALL",
      "contractName": "MockRebasingLST",
      "contractAddress": "0xb095df6c168c14f970b0d098754d84c31b7e33d9",
      "function": "rebaseByBps(uint16)",
      "arguments": [
        "100"
      ],
      "transaction": {
        "from": "0x4b992f2fbf714c0fcbb23bac5130ace48cad00cd",
        "to": "0xb095df6c168c14f970b0d098754d84c31b7e33d9",
        "value": "0x0",
        "input": "0x9c26d4ba0000000000000000000000000000000000000000000000000000000000000064",
        "nonce": "0x5c6",
        "chainId": "0x515"
      },
      "additionalContracts": [],
      "isFixedGasLimit": false
    },
    {
      "hash": null,
      "transactionType": "CALL",
      "contractName": "MockPoolManagerHarness",
      "contractAddress": "0x1f601976fb1905ebc488a29cb47e57645b86e072",
      "function": "setSlot0(bytes32,uint160,int24,uint24,uint24)",
      "arguments": [
        "0x14b10028069278639cdcf9f7ed3443bb50594a9370c8c5e6f9ca9d46f614ea7f",
        "79228162514264337593543950336",
        "12",
        "0",
        "3000"
      ],
      "transaction": {
        "from": "0x4b992f2fbf714c0fcbb23bac5130ace48cad00cd",
        "to": "0x1f601976fb1905ebc488a29cb47e57645b86e072",
        "value": "0x0",
        "input": "0x41e8918714b10028069278639cdcf9f7ed3443bb50594a9370c8c5e6f9ca9d46f614ea7f0000000000000000000000000000000000000001000000000000000000000000000000000000000000000000000000000000000000000000000000000000000c00000000000000000000000000000000000000000000000000000000000000000000000000000000000000000000000000000000000000000000000000000bb8",
        "nonce": "0x5c7",
        "chainId": "0x515"
      },
      "additionalContracts": [],
      "isFixedGasLimit": false
    },
    {
      "hash": null,
      "transactionType": "CALL",
      "contractName": "MockPoolManagerHarness",
      "contractAddress": "0x1f601976fb1905ebc488a29cb47e57645b86e072",
      "function": "callBeforeSwap(address,address,(address,address,uint24,int24,address),(bool,int256,uint160))",
      "arguments": [
        "0xAaABB07Ec60c3A52970Bd43bf31AD2fCbE2AC0C0",
        "0x4b992F2Fbf714C0fCBb23baC5130Ace48CaD00cd",
        "(0x7bE88Fc99b1d19b4A41118AF0c4819A99204035d, 0xb095Df6C168C14F970b0d098754D84c31B7E33d9, 3000, 60, 0xAaABB07Ec60c3A52970Bd43bf31AD2fCbE2AC0C0)",
        "(false, -250000000000000000, 0)"
      ],
      "transaction": {
        "from": "0x4b992f2fbf714c0fcbb23bac5130ace48cad00cd",
        "to": "0x1f601976fb1905ebc488a29cb47e57645b86e072",
        "value": "0x0",
        "input": "0x83cbd58b000000000000000000000000aaabb07ec60c3a52970bd43bf31ad2fcbe2ac0c00000000000000000000000004b992f2fbf714c0fcbb23bac5130ace48cad00cd0000000000000000000000007be88fc99b1d19b4a41118af0c4819a99204035d000000000000000000000000b095df6c168c14f970b0d098754d84c31b7e33d90000000000000000000000000000000000000000000000000000000000000bb8000000000000000000000000000000000000000000000000000000000000003c000000000000000000000000aaabb07ec60c3a52970bd43bf31ad2fcbe2ac0c00000000000000000000000000000000000000000000000000000000000000000fffffffffffffffffffffffffffffffffffffffffffffffffc87d253162700000000000000000000000000000000000000000000000000000000000000000000",
        "nonce": "0x5c8",
        "chainId": "0x515"
      },
      "additionalContracts": [],
      "isFixedGasLimit": false
    },
    {
      "hash": null,
      "transactionType": "CALL",
      "contractName": "MockPoolManagerHarness",
      "contractAddress": "0x1f601976fb1905ebc488a29cb47e57645b86e072",
      "function": "setSlot0(bytes32,uint160,int24,uint24,uint24)",
      "arguments": [
        "0x14b10028069278639cdcf9f7ed3443bb50594a9370c8c5e6f9ca9d46f614ea7f",
        "79228162514264337593543950336",
        "12",
        "0",
        "3000"
      ],
      "transaction": {
        "from": "0x4b992f2fbf714c0fcbb23bac5130ace48cad00cd",
        "to": "0x1f601976fb1905ebc488a29cb47e57645b86e072",
        "value": "0x0",
        "input": "0x41e8918714b10028069278639cdcf9f7ed3443bb50594a9370c8c5e6f9ca9d46f614ea7f0000000000000000000000000000000000000001000000000000000000000000000000000000000000000000000000000000000000000000000000000000000c00000000000000000000000000000000000000000000000000000000000000000000000000000000000000000000000000000000000000000000000000000bb8",
        "nonce": "0x5c9",
        "chainId": "0x515"
      },
      "additionalContracts": [],
      "isFixedGasLimit": false
    },
    {
      "hash": null,
      "transactionType": "CALL",
      "contractName": "MockPoolManagerHarness",
      "contractAddress": "0x1f601976fb1905ebc488a29cb47e57645b86e072",
      "function": "callAfterSwap(address,address,(address,address,uint24,int24,address),(bool,int256,uint160))",
      "arguments": [
        "0xAaABB07Ec60c3A52970Bd43bf31AD2fCbE2AC0C0",
        "0x4b992F2Fbf714C0fCBb23baC5130Ace48CaD00cd",
        "(0x7bE88Fc99b1d19b4A41118AF0c4819A99204035d, 0xb095Df6C168C14F970b0d098754D84c31B7E33d9, 3000, 60, 0xAaABB07Ec60c3A52970Bd43bf31AD2fCbE2AC0C0)",
        "(false, -50000000000000000, 0)"
      ],
      "transaction": {
        "from": "0x4b992f2fbf714c0fcbb23bac5130ace48cad00cd",
        "to": "0x1f601976fb1905ebc488a29cb47e57645b86e072",
        "value": "0x0",
        "input": "0xd52fd693000000000000000000000000aaabb07ec60c3a52970bd43bf31ad2fcbe2ac0c00000000000000000000000004b992f2fbf714c0fcbb23bac5130ace48cad00cd0000000000000000000000007be88fc99b1d19b4a41118af0c4819a99204035d000000000000000000000000b095df6c168c14f970b0d098754d84c31b7e33d90000000000000000000000000000000000000000000000000000000000000bb8000000000000000000000000000000000000000000000000000000000000003c000000000000000000000000aaabb07ec60c3a52970bd43bf31ad2fcbe2ac0c00000000000000000000000000000000000000000000000000000000000000000ffffffffffffffffffffffffffffffffffffffffffffffffff4e5d43d13b00000000000000000000000000000000000000000000000000000000000000000000",
        "nonce": "0x5ca",
        "chainId": "0x515"
      },
      "additionalContracts": [],
      "isFixedGasLimit": false
    },
    {
      "hash": null,
      "transactionType": "CALL",
      "contractName": "MockPoolManagerHarness",
      "contractAddress": "0x1f601976fb1905ebc488a29cb47e57645b86e072",
      "function": "setSlot0(bytes32,uint160,int24,uint24,uint24)",
      "arguments": [
        "0x14b10028069278639cdcf9f7ed3443bb50594a9370c8c5e6f9ca9d46f614ea7f",
        "79228162514264337593543950336",
        "12",
        "0",
        "3000"
      ],
      "transaction": {
        "from": "0x4b992f2fbf714c0fcbb23bac5130ace48cad00cd",
        "to": "0x1f601976fb1905ebc488a29cb47e57645b86e072",
        "value": "0x0",
        "input": "0x41e8918714b10028069278639cdcf9f7ed3443bb50594a9370c8c5e6f9ca9d46f614ea7f0000000000000000000000000000000000000001000000000000000000000000000000000000000000000000000000000000000000000000000000000000000c00000000000000000000000000000000000000000000000000000000000000000000000000000000000000000000000000000000000000000000000000000bb8",
        "nonce": "0x5cb",
        "chainId": "0x515"
      },
      "additionalContracts": [],
      "isFixedGasLimit": false
    },
    {
      "hash": null,
      "transactionType": "CALL",
      "contractName": "MockPoolManagerHarness",
      "contractAddress": "0x1f601976fb1905ebc488a29cb47e57645b86e072",
      "function": "callBeforeSwap(address,address,(address,address,uint24,int24,address),(bool,int256,uint160))",
      "arguments": [
        "0xAaABB07Ec60c3A52970Bd43bf31AD2fCbE2AC0C0",
        "0x4b992F2Fbf714C0fCBb23baC5130Ace48CaD00cd",
        "(0x7bE88Fc99b1d19b4A41118AF0c4819A99204035d, 0xb095Df6C168C14F970b0d098754D84c31B7E33d9, 3000, 60, 0xAaABB07Ec60c3A52970Bd43bf31AD2fCbE2AC0C0)",
        "(false, -600000000000000000, 0)"
      ],
      "transaction": {
        "from": "0x4b992f2fbf714c0fcbb23bac5130ace48cad00cd",
        "to": "0x1f601976fb1905ebc488a29cb47e57645b86e072",
        "value": "0x0",
        "input": "0x83cbd58b000000000000000000000000aaabb07ec60c3a52970bd43bf31ad2fcbe2ac0c00000000000000000000000004b992f2fbf714c0fcbb23bac5130ace48cad00cd0000000000000000000000007be88fc99b1d19b4a41118af0c4819a99204035d000000000000000000000000b095df6c168c14f970b0d098754d84c31b7e33d90000000000000000000000000000000000000000000000000000000000000bb8000000000000000000000000000000000000000000000000000000000000003c000000000000000000000000aaabb07ec60c3a52970bd43bf31ad2fcbe2ac0c00000000000000000000000000000000000000000000000000000000000000000fffffffffffffffffffffffffffffffffffffffffffffffff7ac5f2dcec400000000000000000000000000000000000000000000000000000000000000000000",
        "nonce": "0x5cc",
        "chainId": "0x515"
      },
      "additionalContracts": [],
      "isFixedGasLimit": false
    },
    {
      "hash": null,
      "transactionType": "CALL",
      "contractName": "MockPoolManagerHarness",
      "contractAddress": "0x1f601976fb1905ebc488a29cb47e57645b86e072",
      "function": "setRawSlot(bytes32,bytes32)",
      "arguments": [
        "0x00000000000000000000000000000000000000000000000000000000000003e8",
        "0x00000000000000000000000000000000000000000000000000000000000003e8"
      ],
      "transaction": {
        "from": "0x4b992f2fbf714c0fcbb23bac5130ace48cad00cd",
        "to": "0x1f601976fb1905ebc488a29cb47e57645b86e072",
        "value": "0x0",
        "input": "0xde31d64200000000000000000000000000000000000000000000000000000000000003e800000000000000000000000000000000000000000000000000000000000003e8",
        "nonce": "0x5cd",
        "chainId": "0x515"
      },
      "additionalContracts": [],
      "isFixedGasLimit": false
    },
    {
      "hash": null,
      "transactionType": "CALL",
      "contractName": "MockPoolManagerHarness",
      "contractAddress": "0x1f601976fb1905ebc488a29cb47e57645b86e072",
      "function": "setRawSlot(bytes32,bytes32)",
      "arguments": [
        "0x00000000000000000000000000000000000000000000000000000000000003e9",
        "0x00000000000000000000000000000000000000000000000000000000000003e9"
      ],
      "transaction": {
        "from": "0x4b992f2fbf714c0fcbb23bac5130ace48cad00cd",
        "to": "0x1f601976fb1905ebc488a29cb47e57645b86e072",
        "value": "0x0",
        "input": "0xde31d64200000000000000000000000000000000000000000000000000000000000003e900000000000000000000000000000000000000000000000000000000000003e9",
        "nonce": "0x5ce",
        "chainId": "0x515"
      },
      "additionalContracts": [],
      "isFixedGasLimit": false
    },
    {
      "hash": null,
      "transactionType": "CALL",
      "contractName": "MockPoolManagerHarness",
      "contractAddress": "0x1f601976fb1905ebc488a29cb47e57645b86e072",
      "function": "setRawSlot(bytes32,bytes32)",
      "arguments": [
        "0x00000000000000000000000000000000000000000000000000000000000003ea",
        "0x00000000000000000000000000000000000000000000000000000000000003ea"
      ],
      "transaction": {
        "from": "0x4b992f2fbf714c0fcbb23bac5130ace48cad00cd",
        "to": "0x1f601976fb1905ebc488a29cb47e57645b86e072",
        "value": "0x0",
        "input": "0xde31d64200000000000000000000000000000000000000000000000000000000000003ea00000000000000000000000000000000000000000000000000000000000003ea",
        "nonce": "0x5cf",
        "chainId": "0x515"
      },
      "additionalContracts": [],
      "isFixedGasLimit": false
    },
    {
      "hash": null,
      "transactionType": "CALL",
      "contractName": "MockPoolManagerHarness",
      "contractAddress": "0x1f601976fb1905ebc488a29cb47e57645b86e072",
      "function": "setRawSlot(bytes32,bytes32)",
      "arguments": [
        "0x00000000000000000000000000000000000000000000000000000000000003eb",
        "0x00000000000000000000000000000000000000000000000000000000000003eb"
      ],
      "transaction": {
        "from": "0x4b992f2fbf714c0fcbb23bac5130ace48cad00cd",
        "to": "0x1f601976fb1905ebc488a29cb47e57645b86e072",
        "value": "0x0",
        "input": "0xde31d64200000000000000000000000000000000000000000000000000000000000003eb00000000000000000000000000000000000000000000000000000000000003eb",
        "nonce": "0x5d0",
        "chainId": "0x515"
      },
      "additionalContracts": [],
      "isFixedGasLimit": false
    },
    {
      "hash": null,
      "transactionType": "CALL",
      "contractName": "MockPoolManagerHarness",
      "contractAddress": "0x1f601976fb1905ebc488a29cb47e57645b86e072",
      "function": "setRawSlot(bytes32,bytes32)",
      "arguments": [
        "0x00000000000000000000000000000000000000000000000000000000000003ec",
        "0x00000000000000000000000000000000000000000000000000000000000003ec"
      ],
      "transaction": {
        "from": "0x4b992f2fbf714c0fcbb23bac5130ace48cad00cd",
        "to": "0x1f601976fb1905ebc488a29cb47e57645b86e072",
        "value": "0x0",
        "input": "0xde31d64200000000000000000000000000000000000000000000000000000000000003ec00000000000000000000000000000000000000000000000000000000000003ec",
        "nonce": "0x5d1",
        "chainId": "0x515"
      },
      "additionalContracts": [],
      "isFixedGasLimit": false
    },
    {
      "hash": null,
      "transactionType": "CALL",
      "contractName": "MockPoolManagerHarness",
      "contractAddress": "0x1f601976fb1905ebc488a29cb47e57645b86e072",
      "function": "setRawSlot(bytes32,bytes32)",
      "arguments": [
        "0x00000000000000000000000000000000000000000000000000000000000003ed",
        "0x00000000000000000000000000000000000000000000000000000000000003ed"
      ],
      "transaction": {
        "from": "0x4b992f2fbf714c0fcbb23bac5130ace48cad00cd",
        "to": "0x1f601976fb1905ebc488a29cb47e57645b86e072",
        "value": "0x0",
        "input": "0xde31d64200000000000000000000000000000000000000000000000000000000000003ed00000000000000000000000000000000000000000000000000000000000003ed",
        "nonce": "0x5d2",
        "chainId": "0x515"
      },
      "additionalContracts": [],
      "isFixedGasLimit": false
    },
    {
      "hash": null,
      "transactionType": "CALL",
      "contractName": "MockPoolManagerHarness",
      "contractAddress": "0x1f601976fb1905ebc488a29cb47e57645b86e072",
      "function": "setRawSlot(bytes32,bytes32)",
      "arguments": [
        "0x00000000000000000000000000000000000000000000000000000000000003ee",
        "0x00000000000000000000000000000000000000000000000000000000000003ee"
      ],
      "transaction": {
        "from": "0x4b992f2fbf714c0fcbb23bac5130ace48cad00cd",
        "to": "0x1f601976fb1905ebc488a29cb47e57645b86e072",
        "value": "0x0",
        "input": "0xde31d64200000000000000000000000000000000000000000000000000000000000003ee00000000000000000000000000000000000000000000000000000000000003ee",
        "nonce": "0x5d3",
        "chainId": "0x515"
      },
      "additionalContracts": [],
      "isFixedGasLimit": false
    },
    {
      "hash": null,
      "transactionType": "CALL",
      "contractName": "MockPoolManagerHarness",
      "contractAddress": "0x1f601976fb1905ebc488a29cb47e57645b86e072",
      "function": "setRawSlot(bytes32,bytes32)",
      "arguments": [
        "0x00000000000000000000000000000000000000000000000000000000000003ef",
        "0x00000000000000000000000000000000000000000000000000000000000003ef"
      ],
      "transaction": {
        "from": "0x4b992f2fbf714c0fcbb23bac5130ace48cad00cd",
        "to": "0x1f601976fb1905ebc488a29cb47e57645b86e072",
        "value": "0x0",
        "input": "0xde31d64200000000000000000000000000000000000000000000000000000000000003ef00000000000000000000000000000000000000000000000000000000000003ef",
        "nonce": "0x5d4",
        "chainId": "0x515"
      },
      "additionalContracts": [],
      "isFixedGasLimit": false
    },
    {
      "hash": null,
      "transactionType": "CALL",
      "contractName": "MockPoolManagerHarness",
      "contractAddress": "0x1f601976fb1905ebc488a29cb47e57645b86e072",
      "function": "setRawSlot(bytes32,bytes32)",
      "arguments": [
        "0x00000000000000000000000000000000000000000000000000000000000003f0",
        "0x00000000000000000000000000000000000000000000000000000000000003f0"
      ],
      "transaction": {
        "from": "0x4b992f2fbf714c0fcbb23bac5130ace48cad00cd",
        "to": "0x1f601976fb1905ebc488a29cb47e57645b86e072",
        "value": "0x0",
        "input": "0xde31d64200000000000000000000000000000000000000000000000000000000000003f000000000000000000000000000000000000000000000000000000000000003f0",
        "nonce": "0x5d5",
        "chainId": "0x515"
      },
      "additionalContracts": [],
      "isFixedGasLimit": false
    },
    {
      "hash": null,
      "transactionType": "CALL",
      "contractName": "MockPoolManagerHarness",
      "contractAddress": "0x1f601976fb1905ebc488a29cb47e57645b86e072",
      "function": "setRawSlot(bytes32,bytes32)",
      "arguments": [
        "0x00000000000000000000000000000000000000000000000000000000000003f1",
        "0x00000000000000000000000000000000000000000000000000000000000003f1"
      ],
      "transaction": {
        "from": "0x4b992f2fbf714c0fcbb23bac5130ace48cad00cd",
        "to": "0x1f601976fb1905ebc488a29cb47e57645b86e072",
        "value": "0x0",
        "input": "0xde31d64200000000000000000000000000000000000000000000000000000000000003f100000000000000000000000000000000000000000000000000000000000003f1",
        "nonce": "0x5d6",
        "chainId": "0x515"
      },
      "additionalContracts": [],
      "isFixedGasLimit": false
    },
    {
      "hash": null,
      "transactionType": "CALL",
      "contractName": "MockPoolManagerHarness",
      "contractAddress": "0x1f601976fb1905ebc488a29cb47e57645b86e072",
      "function": "setRawSlot(bytes32,bytes32)",
      "arguments": [
        "0x00000000000000000000000000000000000000000000000000000000000003f2",
        "0x00000000000000000000000000000000000000000000000000000000000003f2"
      ],
      "transaction": {
        "from": "0x4b992f2fbf714c0fcbb23bac5130ace48cad00cd",
        "to": "0x1f601976fb1905ebc488a29cb47e57645b86e072",
        "value": "0x0",
        "input": "0xde31d64200000000000000000000000000000000000000000000000000000000000003f200000000000000000000000000000000000000000000000000000000000003f2",
        "nonce": "0x5d7",
        "chainId": "0x515"
      },
      "additionalContracts": [],
      "isFixedGasLimit": false
    },
    {
      "hash": null,
      "transactionType": "CALL",
      "contractName": "MockPoolManagerHarness",
      "contractAddress": "0x1f601976fb1905ebc488a29cb47e57645b86e072",
      "function": "setRawSlot(bytes32,bytes32)",
      "arguments": [
        "0x00000000000000000000000000000000000000000000000000000000000003f3",
        "0x00000000000000000000000000000000000000000000000000000000000003f3"
      ],
      "transaction": {
        "from": "0x4b992f2fbf714c0fcbb23bac5130ace48cad00cd",
        "to": "0x1f601976fb1905ebc488a29cb47e57645b86e072",
        "value": "0x0",
        "input": "0xde31d64200000000000000000000000000000000000000000000000000000000000003f300000000000000000000000000000000000000000000000000000000000003f3",
        "nonce": "0x5d8",
        "chainId": "0x515"
      },
      "additionalContracts": [],
      "isFixedGasLimit": false
    },
    {
      "hash": null,
      "transactionType": "CALL",
      "contractName": "MockPoolManagerHarness",
      "contractAddress": "0x1f601976fb1905ebc488a29cb47e57645b86e072",
      "function": "setRawSlot(bytes32,bytes32)",
      "arguments": [
        "0x00000000000000000000000000000000000000000000000000000000000003f4",
        "0x00000000000000000000000000000000000000000000000000000000000003f4"
      ],
      "transaction": {
        "from": "0x4b992f2fbf714c0fcbb23bac5130ace48cad00cd",
        "to": "0x1f601976fb1905ebc488a29cb47e57645b86e072",
        "value": "0x0",
        "input": "0xde31d64200000000000000000000000000000000000000000000000000000000000003f400000000000000000000000000000000000000000000000000000000000003f4",
        "nonce": "0x5d9",
        "chainId": "0x515"
      },
      "additionalContracts": [],
      "isFixedGasLimit": false
    },
    {
      "hash": null,
      "transactionType": "CALL",
      "contractName": "MockPoolManagerHarness",
      "contractAddress": "0x1f601976fb1905ebc488a29cb47e57645b86e072",
      "function": "setRawSlot(bytes32,bytes32)",
      "arguments": [
        "0x00000000000000000000000000000000000000000000000000000000000003f5",
        "0x00000000000000000000000000000000000000000000000000000000000003f5"
      ],
      "transaction": {
        "from": "0x4b992f2fbf714c0fcbb23bac5130ace48cad00cd",
        "to": "0x1f601976fb1905ebc488a29cb47e57645b86e072",
        "value": "0x0",
        "input": "0xde31d64200000000000000000000000000000000000000000000000000000000000003f500000000000000000000000000000000000000000000000000000000000003f5",
        "nonce": "0x5da",
        "chainId": "0x515"
      },
      "additionalContracts": [],
      "isFixedGasLimit": false
    },
    {
      "hash": null,
      "transactionType": "CALL",
      "contractName": "MockPoolManagerHarness",
      "contractAddress": "0x1f601976fb1905ebc488a29cb47e57645b86e072",
      "function": "setRawSlot(bytes32,bytes32)",
      "arguments": [
        "0x00000000000000000000000000000000000000000000000000000000000003f6",
        "0x00000000000000000000000000000000000000000000000000000000000003f6"
      ],
      "transaction": {
        "from": "0x4b992f2fbf714c0fcbb23bac5130ace48cad00cd",
        "to": "0x1f601976fb1905ebc488a29cb47e57645b86e072",
        "value": "0x0",
        "input": "0xde31d64200000000000000000000000000000000000000000000000000000000000003f600000000000000000000000000000000000000000000000000000000000003f6",
        "nonce": "0x5db",
        "chainId": "0x515"
      },
      "additionalContracts": [],
      "isFixedGasLimit": false
    },
    {
      "hash": null,
      "transactionType": "CALL",
      "contractName": "MockPoolManagerHarness",
      "contractAddress": "0x1f601976fb1905ebc488a29cb47e57645b86e072",
      "function": "setRawSlot(bytes32,bytes32)",
      "arguments": [
        "0x00000000000000000000000000000000000000000000000000000000000003f7",
        "0x00000000000000000000000000000000000000000000000000000000000003f7"
      ],
      "transaction": {
        "from": "0x4b992f2fbf714c0fcbb23bac5130ace48cad00cd",
        "to": "0x1f601976fb1905ebc488a29cb47e57645b86e072",
        "value": "0x0",
        "input": "0xde31d64200000000000000000000000000000000000000000000000000000000000003f700000000000000000000000000000000000000000000000000000000000003f7",
        "nonce": "0x5dc",
        "chainId": "0x515"
      },
      "additionalContracts": [],
      "isFixedGasLimit": false
    },
    {
      "hash": null,
      "transactionType": "CALL",
      "contractName": "MockPoolManagerHarness",
      "contractAddress": "0x1f601976fb1905ebc488a29cb47e57645b86e072",
      "function": "setRawSlot(bytes32,bytes32)",
      "arguments": [
        "0x00000000000000000000000000000000000000000000000000000000000003f8",
        "0x00000000000000000000000000000000000000000000000000000000000003f8"
      ],
      "transaction": {
        "from": "0x4b992f2fbf714c0fcbb23bac5130ace48cad00cd",
        "to": "0x1f601976fb1905ebc488a29cb47e57645b86e072",
        "value": "0x0",
        "input": "0xde31d64200000000000000000000000000000000000000000000000000000000000003f800000000000000000000000000000000000000000000000000000000000003f8",
        "nonce": "0x5dd",
        "chainId": "0x515"
      },
      "additionalContracts": [],
      "isFixedGasLimit": false
    },
    {
      "hash": null,
      "transactionType": "CALL",
      "contractName": "MockPoolManagerHarness",
      "contractAddress": "0x1f601976fb1905ebc488a29cb47e57645b86e072",
      "function": "setRawSlot(bytes32,bytes32)",
      "arguments": [
        "0x00000000000000000000000000000000000000000000000000000000000003f9",
        "0x00000000000000000000000000000000000000000000000000000000000003f9"
      ],
      "transaction": {
        "from": "0x4b992f2fbf714c0fcbb23bac5130ace48cad00cd",
        "to": "0x1f601976fb1905ebc488a29cb47e57645b86e072",
        "value": "0x0",
        "input": "0xde31d64200000000000000000000000000000000000000000000000000000000000003f900000000000000000000000000000000000000000000000000000000000003f9",
        "nonce": "0x5de",
        "chainId": "0x515"
      },
      "additionalContracts": [],
      "isFixedGasLimit": false
    },
    {
      "hash": null,
      "transactionType": "CALL",
      "contractName": "MockPoolManagerHarness",
      "contractAddress": "0x1f601976fb1905ebc488a29cb47e57645b86e072",
      "function": "setRawSlot(bytes32,bytes32)",
      "arguments": [
        "0x00000000000000000000000000000000000000000000000000000000000003fa",
        "0x00000000000000000000000000000000000000000000000000000000000003fa"
      ],
      "transaction": {
        "from": "0x4b992f2fbf714c0fcbb23bac5130ace48cad00cd",
        "to": "0x1f601976fb1905ebc488a29cb47e57645b86e072",
        "value": "0x0",
        "input": "0xde31d64200000000000000000000000000000000000000000000000000000000000003fa00000000000000000000000000000000000000000000000000000000000003fa",
        "nonce": "0x5df",
        "chainId": "0x515"
      },
      "additionalContracts": [],
      "isFixedGasLimit": false
    },
    {
      "hash": null,
      "transactionType": "CALL",
      "contractName": "MockPoolManagerHarness",
      "contractAddress": "0x1f601976fb1905ebc488a29cb47e57645b86e072",
      "function": "setRawSlot(bytes32,bytes32)",
      "arguments": [
        "0x00000000000000000000000000000000000000000000000000000000000003fb",
        "0x00000000000000000000000000000000000000000000000000000000000003fb"
      ],
      "transaction": {
        "from": "0x4b992f2fbf714c0fcbb23bac5130ace48cad00cd",
        "to": "0x1f601976fb1905ebc488a29cb47e57645b86e072",
        "value": "0x0",
        "input": "0xde31d64200000000000000000000000000000000000000000000000000000000000003fb00000000000000000000000000000000000000000000000000000000000003fb",
        "nonce": "0x5e0",
        "chainId": "0x515"
      },
      "additionalContracts": [],
      "isFixedGasLimit": false
    },
    {
      "hash": null,
      "transactionType": "CALL",
      "contractName": "MockPoolManagerHarness",
      "contractAddress": "0x1f601976fb1905ebc488a29cb47e57645b86e072",
      "function": "setRawSlot(bytes32,bytes32)",
      "arguments": [
        "0x00000000000000000000000000000000000000000000000000000000000003fc",
        "0x00000000000000000000000000000000000000000000000000000000000003fc"
      ],
      "transaction": {
        "from": "0x4b992f2fbf714c0fcbb23bac5130ace48cad00cd",
        "to": "0x1f601976fb1905ebc488a29cb47e57645b86e072",
        "value": "0x0",
        "input": "0xde31d64200000000000000000000000000000000000000000000000000000000000003fc00000000000000000000000000000000000000000000000000000000000003fc",
        "nonce": "0x5e1",
        "chainId": "0x515"
      },
      "additionalContracts": [],
      "isFixedGasLimit": false
    },
    {
      "hash": null,
      "transactionType": "CALL",
      "contractName": "MockPoolManagerHarness",
      "contractAddress": "0x1f601976fb1905ebc488a29cb47e57645b86e072",
      "function": "setRawSlot(bytes32,bytes32)",
      "arguments": [
        "0x00000000000000000000000000000000000000000000000000000000000003fd",
        "0x00000000000000000000000000000000000000000000000000000000000003fd"
      ],
      "transaction": {
        "from": "0x4b992f2fbf714c0fcbb23bac5130ace48cad00cd",
        "to": "0x1f601976fb1905ebc488a29cb47e57645b86e072",
        "value": "0x0",
        "input": "0xde31d64200000000000000000000000000000000000000000000000000000000000003fd00000000000000000000000000000000000000000000000000000000000003fd",
        "nonce": "0x5e2",
        "chainId": "0x515"
      },
      "additionalContracts": [],
      "isFixedGasLimit": false
    },
    {
      "hash": null,
      "transactionType": "CALL",
      "contractName": "MockPoolManagerHarness",
      "contractAddress": "0x1f601976fb1905ebc488a29cb47e57645b86e072",
      "function": "setRawSlot(bytes32,bytes32)",
      "arguments": [
        "0x00000000000000000000000000000000000000000000000000000000000003fe",
        "0x00000000000000000000000000000000000000000000000000000000000003fe"
      ],
      "transaction": {
        "from": "0x4b992f2fbf714c0fcbb23bac5130ace48cad00cd",
        "to": "0x1f601976fb1905ebc488a29cb47e57645b86e072",
        "value": "0x0",
        "input": "0xde31d64200000000000000000000000000000000000000000000000000000000000003fe00000000000000000000000000000000000000000000000000000000000003fe",
        "nonce": "0x5e3",
        "chainId": "0x515"
      },
      "additionalContracts": [],
      "isFixedGasLimit": false
    },
    {
      "hash": null,
      "transactionType": "CALL",
      "contractName": "MockPoolManagerHarness",
      "contractAddress": "0x1f601976fb1905ebc488a29cb47e57645b86e072",
      "function": "setRawSlot(bytes32,bytes32)",
      "arguments": [
        "0x00000000000000000000000000000000000000000000000000000000000003ff",
        "0x00000000000000000000000000000000000000000000000000000000000003ff"
      ],
      "transaction": {
        "from": "0x4b992f2fbf714c0fcbb23bac5130ace48cad00cd",
        "to": "0x1f601976fb1905ebc488a29cb47e57645b86e072",
        "value": "0x0",
        "input": "0xde31d64200000000000000000000000000000000000000000000000000000000000003ff00000000000000000000000000000000000000000000000000000000000003ff",
        "nonce": "0x5e4",
        "chainId": "0x515"
      },
      "additionalContracts": [],
      "isFixedGasLimit": false
    },
    {
      "hash": null,
      "transactionType": "CALL",
      "contractName": "MockPoolManagerHarness",
      "contractAddress": "0x1f601976fb1905ebc488a29cb47e57645b86e072",
      "function": "setRawSlot(bytes32,bytes32)",
      "arguments": [
        "0x0000000000000000000000000000000000000000000000000000000000000400",
        "0x0000000000000000000000000000000000000000000000000000000000000400"
      ],
      "transaction": {
        "from": "0x4b992f2fbf714c0fcbb23bac5130ace48cad00cd",
        "to": "0x1f601976fb1905ebc488a29cb47e57645b86e072",
        "value": "0x0",
        "input": "0xde31d64200000000000000000000000000000000000000000000000000000000000004000000000000000000000000000000000000000000000000000000000000000400",
        "nonce": "0x5e5",
        "chainId": "0x515"
      },
      "additionalContracts": [],
      "isFixedGasLimit": false
    },
    {
      "hash": null,
      "transactionType": "CALL",
      "contractName": "MockPoolManagerHarness",
      "contractAddress": "0x1f601976fb1905ebc488a29cb47e57645b86e072",
      "function": "setRawSlot(bytes32,bytes32)",
      "arguments": [
        "0x0000000000000000000000000000000000000000000000000000000000000401",
        "0x0000000000000000000000000000000000000000000000000000000000000401"
      ],
      "transaction": {
        "from": "0x4b992f2fbf714c0fcbb23bac5130ace48cad00cd",
        "to": "0x1f601976fb1905ebc488a29cb47e57645b86e072",
        "value": "0x0",
        "input": "0xde31d64200000000000000000000000000000000000000000000000000000000000004010000000000000000000000000000000000000000000000000000000000000401",
        "nonce": "0x5e6",
        "chainId": "0x515"
      },
      "additionalContracts": [],
      "isFixedGasLimit": false
    },
    {
      "hash": null,
      "transactionType": "CALL",
      "contractName": "MockPoolManagerHarness",
      "contractAddress": "0x1f601976fb1905ebc488a29cb47e57645b86e072",
      "function": "setRawSlot(bytes32,bytes32)",
      "arguments": [
        "0x0000000000000000000000000000000000000000000000000000000000000402",
        "0x0000000000000000000000000000000000000000000000000000000000000402"
      ],
      "transaction": {
        "from": "0x4b992f2fbf714c0fcbb23bac5130ace48cad00cd",
        "to": "0x1f601976fb1905ebc488a29cb47e57645b86e072",
        "value": "0x0",
        "input": "0xde31d64200000000000000000000000000000000000000000000000000000000000004020000000000000000000000000000000000000000000000000000000000000402",
        "nonce": "0x5e7",
        "chainId": "0x515"
      },
      "additionalContracts": [],
      "isFixedGasLimit": false
    },
    {
      "hash": null,
      "transactionType": "CALL",
      "contractName": "MockPoolManagerHarness",
      "contractAddress": "0x1f601976fb1905ebc488a29cb47e57645b86e072",
      "function": "setRawSlot(bytes32,bytes32)",
      "arguments": [
        "0x0000000000000000000000000000000000000000000000000000000000000403",
        "0x0000000000000000000000000000000000000000000000000000000000000403"
      ],
      "transaction": {
        "from": "0x4b992f2fbf714c0fcbb23bac5130ace48cad00cd",
        "to": "0x1f601976fb1905ebc488a29cb47e57645b86e072",
        "value": "0x0",
        "input": "0xde31d64200000000000000000000000000000000000000000000000000000000000004030000000000000000000000000000000000000000000000000000000000000403",
        "nonce": "0x5e8",
        "chainId": "0x515"
      },
      "additionalContracts": [],
      "isFixedGasLimit": false
    },
    {
      "hash": null,
      "transactionType": "CALL",
      "contractName": "MockPoolManagerHarness",
      "contractAddress": "0x1f601976fb1905ebc488a29cb47e57645b86e072",
      "function": "setRawSlot(bytes32,bytes32)",
      "arguments": [
        "0x0000000000000000000000000000000000000000000000000000000000000404",
        "0x0000000000000000000000000000000000000000000000000000000000000404"
      ],
      "transaction": {
        "from": "0x4b992f2fbf714c0fcbb23bac5130ace48cad00cd",
        "to": "0x1f601976fb1905ebc488a29cb47e57645b86e072",
        "value": "0x0",
        "input": "0xde31d64200000000000000000000000000000000000000000000000000000000000004040000000000000000000000000000000000000000000000000000000000000404",
        "nonce": "0x5e9",
        "chainId": "0x515"
      },
      "additionalContracts": [],
      "isFixedGasLimit": false
    },
    {
      "hash": null,
      "transactionType": "CALL",
      "contractName": "MockPoolManagerHarness",
      "contractAddress": "0x1f601976fb1905ebc488a29cb47e57645b86e072",
      "function": "setRawSlot(bytes32,bytes32)",
      "arguments": [
        "0x0000000000000000000000000000000000000000000000000000000000000405",
        "0x0000000000000000000000000000000000000000000000000000000000000405"
      ],
      "transaction": {
        "from": "0x4b992f2fbf714c0fcbb23bac5130ace48cad00cd",
        "to": "0x1f601976fb1905ebc488a29cb47e57645b86e072",
        "value": "0x0",
        "input": "0xde31d64200000000000000000000000000000000000000000000000000000000000004050000000000000000000000000000000000000000000000000000000000000405",
        "nonce": "0x5ea",
        "chainId": "0x515"
      },
      "additionalContracts": [],
      "isFixedGasLimit": false
    },
    {
      "hash": null,
      "transactionType": "CALL",
      "contractName": "MockPoolManagerHarness",
      "contractAddress": "0x1f601976fb1905ebc488a29cb47e57645b86e072",
      "function": "setSlot0(bytes32,uint160,int24,uint24,uint24)",
      "arguments": [
        "0x14b10028069278639cdcf9f7ed3443bb50594a9370c8c5e6f9ca9d46f614ea7f",
        "79228162514264337593543950336",
        "13",
        "0",
        "3000"
      ],
      "transaction": {
        "from": "0x4b992f2fbf714c0fcbb23bac5130ace48cad00cd",
        "to": "0x1f601976fb1905ebc488a29cb47e57645b86e072",
        "value": "0x0",
        "input": "0x41e8918714b10028069278639cdcf9f7ed3443bb50594a9370c8c5e6f9ca9d46f614ea7f0000000000000000000000000000000000000001000000000000000000000000000000000000000000000000000000000000000000000000000000000000000d00000000000000000000000000000000000000000000000000000000000000000000000000000000000000000000000000000000000000000000000000000bb8",
        "nonce": "0x5eb",
        "chainId": "0x515"
      },
      "additionalContracts": [],
      "isFixedGasLimit": false
    },
    {
      "hash": null,
      "transactionType": "CALL",
      "contractName": "MockPoolManagerHarness",
      "contractAddress": "0x1f601976fb1905ebc488a29cb47e57645b86e072",
      "function": "callBeforeSwap(address,address,(address,address,uint24,int24,address),(bool,int256,uint160))",
      "arguments": [
        "0xAaABB07Ec60c3A52970Bd43bf31AD2fCbE2AC0C0",
        "0x4b992F2Fbf714C0fCBb23baC5130Ace48CaD00cd",
        "(0x7bE88Fc99b1d19b4A41118AF0c4819A99204035d, 0xb095Df6C168C14F970b0d098754D84c31B7E33d9, 3000, 60, 0xAaABB07Ec60c3A52970Bd43bf31AD2fCbE2AC0C0)",
        "(false, -1000000000000000000, 0)"
      ],
      "transaction": {
        "from": "0x4b992f2fbf714c0fcbb23bac5130ace48cad00cd",
        "to": "0x1f601976fb1905ebc488a29cb47e57645b86e072",
        "value": "0x0",
        "input": "0x83cbd58b000000000000000000000000aaabb07ec60c3a52970bd43bf31ad2fcbe2ac0c00000000000000000000000004b992f2fbf714c0fcbb23bac5130ace48cad00cd0000000000000000000000007be88fc99b1d19b4a41118af0c4819a99204035d000000000000000000000000b095df6c168c14f970b0d098754d84c31b7e33d90000000000000000000000000000000000000000000000000000000000000bb8000000000000000000000000000000000000000000000000000000000000003c000000000000000000000000aaabb07ec60c3a52970bd43bf31ad2fcbe2ac0c00000000000000000000000000000000000000000000000000000000000000000fffffffffffffffffffffffffffffffffffffffffffffffff21f494c589c00000000000000000000000000000000000000000000000000000000000000000000",
        "nonce": "0x5ec",
        "chainId": "0x515"
      },
      "additionalContracts": [],
      "isFixedGasLimit": false
    },
    {
      "hash": null,
      "transactionType": "CALL",
      "contractName": "MockPoolManagerHarness",
      "contractAddress": "0x1f601976fb1905ebc488a29cb47e57645b86e072",
      "function": "setSlot0(bytes32,uint160,int24,uint24,uint24)",
      "arguments": [
        "0x14b10028069278639cdcf9f7ed3443bb50594a9370c8c5e6f9ca9d46f614ea7f",
        "79228162514264337593543950336",
        "13",
        "0",
        "3000"
      ],
      "transaction": {
        "from": "0x4b992f2fbf714c0fcbb23bac5130ace48cad00cd",
        "to": "0x1f601976fb1905ebc488a29cb47e57645b86e072",
        "value": "0x0",
        "input": "0x41e8918714b10028069278639cdcf9f7ed3443bb50594a9370c8c5e6f9ca9d46f614ea7f0000000000000000000000000000000000000001000000000000000000000000000000000000000000000000000000000000000000000000000000000000000d00000000000000000000000000000000000000000000000000000000000000000000000000000000000000000000000000000000000000000000000000000bb8",
        "nonce": "0x5ed",
        "chainId": "0x515"
      },
      "additionalContracts": [],
      "isFixedGasLimit": false
    },
    {
      "hash": null,
      "transactionType": "CALL",
      "contractName": "MockPoolManagerHarness",
      "contractAddress": "0x1f601976fb1905ebc488a29cb47e57645b86e072",
      "function": "callAfterSwap(address,address,(address,address,uint24,int24,address),(bool,int256,uint160))",
      "arguments": [
        "0xAaABB07Ec60c3A52970Bd43bf31AD2fCbE2AC0C0",
        "0x4b992F2Fbf714C0fCBb23baC5130Ace48CaD00cd",
        "(0x7bE88Fc99b1d19b4A41118AF0c4819A99204035d, 0xb095Df6C168C14F970b0d098754D84c31B7E33d9, 3000, 60, 0xAaABB07Ec60c3A52970Bd43bf31AD2fCbE2AC0C0)",
        "(false, -50000000000000000, 0)"
      ],
      "transaction": {
        "from": "0x4b992f2fbf714c0fcbb23bac5130ace48cad00cd",
        "to": "0x1f601976fb1905ebc488a29cb47e57645b86e072",
        "value": "0x0",
        "input": "0xd52fd693000000000000000000000000aaabb07ec60c3a52970bd43bf31ad2fcbe2ac0c00000000000000000000000004b992f2fbf714c0fcbb23bac5130ace48cad00cd0000000000000000000000007be88fc99b1d19b4a41118af0c4819a99204035d000000000000000000000000b095df6c168c14f970b0d098754d84c31b7e33d90000000000000000000000000000000000000000000000000000000000000bb8000000000000000000000000000000000000000000000000000000000000003c000000000000000000000000aaabb07ec60c3a52970bd43bf31ad2fcbe2ac0c00000000000000000000000000000000000000000000000000000000000000000ffffffffffffffffffffffffffffffffffffffffffffffffff4e5d43d13b00000000000000000000000000000000000000000000000000000000000000000000",
        "nonce": "0x5ee",
        "chainId": "0x515"
      },
      "additionalContracts": [],
      "isFixedGasLimit": false
    }
  ],
  "receipts": [],
  "libraries": [],
  "pending": [],
  "returns": {},
  "timestamp": 1773648317443,
  "chain": 1301,
  "commit": "f911d63"
}